{
	"contracts/Election.sol": {
		"Election": {
			"abi": [
				{
					"inputs": [
						{
							"internalType": "string",
							"name": "_candidateName",
							"type": "string"
						}
					],
					"name": "addCandidate",
					"outputs": [],
					"stateMutability": "nonpayable",
					"type": "function"
				},
				{
					"inputs": [
						{
							"internalType": "address",
							"name": "_voterAddress",
							"type": "address"
						}
					],
					"name": "authorizeVoter",
					"outputs": [],
					"stateMutability": "nonpayable",
					"type": "function"
				},
				{
					"inputs": [
						{
							"internalType": "uint256",
							"name": "",
							"type": "uint256"
						}
					],
					"name": "candidates",
					"outputs": [
						{
							"internalType": "string",
							"name": "candidateName",
							"type": "string"
						},
						{
							"internalType": "uint256",
							"name": "candidateTotalVote",
							"type": "uint256"
						}
					],
					"stateMutability": "view",
					"type": "function"
				},
				{
					"inputs": [],
					"name": "electionName",
					"outputs": [
						{
							"internalType": "string",
							"name": "",
							"type": "string"
						}
					],
					"stateMutability": "view",
					"type": "function"
				},
				{
					"inputs": [],
					"name": "getCandidatesCount",
					"outputs": [
						{
							"internalType": "uint256",
							"name": "",
							"type": "uint256"
						}
					],
					"stateMutability": "view",
					"type": "function"
				},
				{
					"inputs": [],
					"name": "owner",
					"outputs": [
						{
							"internalType": "address",
							"name": "",
							"type": "address"
						}
					],
					"stateMutability": "view",
					"type": "function"
				},
				{
					"inputs": [
						{
							"internalType": "uint256",
							"name": "_index",
							"type": "uint256"
						}
					],
					"name": "showCandidateInfo",
					"outputs": [
						{
							"components": [
								{
									"internalType": "string",
									"name": "candidateName",
									"type": "string"
								},
								{
									"internalType": "uint256",
									"name": "candidateTotalVote",
									"type": "uint256"
								}
							],
							"internalType": "struct Election.Candidate",
							"name": "",
							"type": "tuple"
						}
					],
					"stateMutability": "view",
					"type": "function"
				},
				{
					"inputs": [
						{
							"internalType": "string",
							"name": "_electionName",
							"type": "string"
						}
					],
					"name": "startElection",
					"outputs": [],
					"stateMutability": "nonpayable",
					"type": "function"
				},
				{
					"inputs": [],
					"name": "totalVotes",
					"outputs": [
						{
							"internalType": "uint256",
							"name": "",
							"type": "uint256"
						}
					],
					"stateMutability": "view",
					"type": "function"
				},
				{
					"inputs": [
						{
							"internalType": "uint256",
							"name": "_whomToVote",
							"type": "uint256"
						}
					],
					"name": "vote",
					"outputs": [],
					"stateMutability": "nonpayable",
					"type": "function"
				},
				{
					"inputs": [
						{
							"internalType": "address",
							"name": "",
							"type": "address"
						}
					],
					"name": "voters",
					"outputs": [
						{
							"internalType": "string",
							"name": "voterName",
							"type": "string"
						},
						{
							"internalType": "uint256",
							"name": "whomVoterVoted",
							"type": "uint256"
						},
						{
							"internalType": "bool",
							"name": "isVoterAuthorized",
							"type": "bool"
						},
						{
							"internalType": "bool",
							"name": "isVoterVoted",
							"type": "bool"
						}
					],
					"stateMutability": "view",
					"type": "function"
				}
			],
			"devdoc": {
				"kind": "dev",
				"methods": {},
				"version": 1
			},
			"evm": {
				"assembly": "    /* \"contracts/Election.sol\":61:1827  contract Election {... */\n  mstore(0x40, 0x80)\n  callvalue\n  dup1\n  iszero\n  tag_1\n  jumpi\n  0x00\n  dup1\n  revert\ntag_1:\n  pop\n  dataSize(sub_0)\n  dup1\n  dataOffset(sub_0)\n  0x00\n  codecopy\n  0x00\n  return\nstop\n\nsub_0: assembly {\n        /* \"contracts/Election.sol\":61:1827  contract Election {... */\n      mstore(0x40, 0x80)\n      callvalue\n      dup1\n      iszero\n      tag_1\n      jumpi\n      0x00\n      dup1\n      revert\n    tag_1:\n      pop\n      jumpi(tag_2, lt(calldatasize, 0x04))\n      shr(0xe0, calldataload(0x00))\n      dup1\n      0x8da5cb5b\n      gt\n      tag_14\n      jumpi\n      dup1\n      0x8da5cb5b\n      eq\n      tag_8\n      jumpi\n      dup1\n      0x8e04ac30\n      eq\n      tag_9\n      jumpi\n      dup1\n      0xa3ec138d\n      eq\n      tag_10\n      jumpi\n      dup1\n      0xbb9aa28f\n      eq\n      tag_11\n      jumpi\n      dup1\n      0xf544bed8\n      eq\n      tag_12\n      jumpi\n      dup1\n      0xfd47b368\n      eq\n      tag_13\n      jumpi\n      jump(tag_2)\n    tag_14:\n      dup1\n      0x0121b93f\n      eq\n      tag_3\n      jumpi\n      dup1\n      0x0d15fd77\n      eq\n      tag_4\n      jumpi\n      dup1\n      0x3477ee2e\n      eq\n      tag_5\n      jumpi\n      dup1\n      0x462e91ec\n      eq\n      tag_6\n      jumpi\n      dup1\n      0x85e8e7a7\n      eq\n      tag_7\n      jumpi\n    tag_2:\n      0x00\n      dup1\n      revert\n        /* \"contracts/Election.sol\":1540:1824  function vote(uint _whomToVote) public {... */\n    tag_3:\n      tag_15\n      0x04\n      dup1\n      calldatasize\n      sub\n      dup2\n      add\n      swap1\n      tag_16\n      swap2\n      swap1\n      tag_17\n      jump\t// in\n    tag_16:\n      tag_18\n      jump\t// in\n    tag_15:\n      stop\n        /* \"contracts/Election.sol\":148:170  uint public totalVotes */\n    tag_4:\n      tag_19\n      tag_20\n      jump\t// in\n    tag_19:\n      mload(0x40)\n      tag_21\n      swap2\n      swap1\n      tag_22\n      jump\t// in\n    tag_21:\n      mload(0x40)\n      dup1\n      swap2\n      sub\n      swap1\n      return\n        /* \"contracts/Election.sol\":223:252  Candidate[] public candidates */\n    tag_5:\n      tag_23\n      0x04\n      dup1\n      calldatasize\n      sub\n      dup2\n      add\n      swap1\n      tag_24\n      swap2\n      swap1\n      tag_17\n      jump\t// in\n    tag_24:\n      tag_25\n      jump\t// in\n    tag_23:\n      mload(0x40)\n      tag_26\n      swap3\n      swap2\n      swap1\n      tag_27\n      jump\t// in\n    tag_26:\n      mload(0x40)\n      dup1\n      swap2\n      sub\n      swap1\n      return\n        /* \"contracts/Election.sol\":832:999  function addCandidate(string memory _candidateName) public onlyOwner {... */\n    tag_6:\n      tag_28\n      0x04\n      dup1\n      calldatasize\n      sub\n      dup2\n      add\n      swap1\n      tag_29\n      swap2\n      swap1\n      tag_30\n      jump\t// in\n    tag_29:\n      tag_31\n      jump\t// in\n    tag_28:\n      stop\n        /* \"contracts/Election.sol\":115:141  string public electionName */\n    tag_7:\n      tag_32\n      tag_33\n      jump\t// in\n    tag_32:\n      mload(0x40)\n      tag_34\n      swap2\n      swap1\n      tag_35\n      jump\t// in\n    tag_34:\n      mload(0x40)\n      dup1\n      swap2\n      sub\n      swap1\n      return\n        /* \"contracts/Election.sol\":88:108  address public owner */\n    tag_8:\n      tag_36\n      tag_37\n      jump\t// in\n    tag_36:\n      mload(0x40)\n      tag_38\n      swap2\n      swap1\n      tag_39\n      jump\t// in\n    tag_38:\n      mload(0x40)\n      dup1\n      swap2\n      sub\n      swap1\n      return\n        /* \"contracts/Election.sol\":1063:1184  function showCandidateInfo(uint _index) public view returns(Candidate memory){... */\n    tag_9:\n      tag_40\n      0x04\n      dup1\n      calldatasize\n      sub\n      dup2\n      add\n      swap1\n      tag_41\n      swap2\n      swap1\n      tag_17\n      jump\t// in\n    tag_41:\n      tag_42\n      jump\t// in\n    tag_40:\n      mload(0x40)\n      tag_43\n      swap2\n      swap1\n      tag_44\n      jump\t// in\n    tag_43:\n      mload(0x40)\n      dup1\n      swap2\n      sub\n      swap1\n      return\n        /* \"contracts/Election.sol\":179:216  mapping(address=>Voter) public voters */\n    tag_10:\n      tag_45\n      0x04\n      dup1\n      calldatasize\n      sub\n      dup2\n      add\n      swap1\n      tag_46\n      swap2\n      swap1\n      tag_47\n      jump\t// in\n    tag_46:\n      tag_48\n      jump\t// in\n    tag_45:\n      mload(0x40)\n      tag_49\n      swap5\n      swap4\n      swap3\n      swap2\n      swap1\n      tag_50\n      jump\t// in\n    tag_49:\n      mload(0x40)\n      dup1\n      swap2\n      sub\n      swap1\n      return\n        /* \"contracts/Election.sol\":1410:1507  function getCandidatesCount()public view returns(uint){... */\n    tag_11:\n      tag_51\n      tag_52\n      jump\t// in\n    tag_51:\n      mload(0x40)\n      tag_53\n      swap2\n      swap1\n      tag_22\n      jump\t// in\n    tag_53:\n      mload(0x40)\n      dup1\n      swap2\n      sub\n      swap1\n      return\n        /* \"contracts/Election.sol\":630:790  function startElection(string memory _electionName) public {... */\n    tag_12:\n      tag_54\n      0x04\n      dup1\n      calldatasize\n      sub\n      dup2\n      add\n      swap1\n      tag_55\n      swap2\n      swap1\n      tag_30\n      jump\t// in\n    tag_55:\n      tag_56\n      jump\t// in\n    tag_54:\n      stop\n        /* \"contracts/Election.sol\":1228:1357  function authorizeVoter(address _voterAddress) public onlyOwner {... */\n    tag_13:\n      tag_57\n      0x04\n      dup1\n      calldatasize\n      sub\n      dup2\n      add\n      swap1\n      tag_58\n      swap2\n      swap1\n      tag_47\n      jump\t// in\n    tag_58:\n      tag_59\n      jump\t// in\n    tag_57:\n      stop\n        /* \"contracts/Election.sol\":1540:1824  function vote(uint _whomToVote) public {... */\n    tag_18:\n        /* \"contracts/Election.sol\":1598:1604  voters */\n      0x03\n        /* \"contracts/Election.sol\":1598:1616  voters[msg.sender] */\n      0x00\n        /* \"contracts/Election.sol\":1605:1615  msg.sender */\n      caller\n        /* \"contracts/Election.sol\":1598:1616  voters[msg.sender] */\n      0xffffffffffffffffffffffffffffffffffffffff\n      and\n      0xffffffffffffffffffffffffffffffffffffffff\n      and\n      dup2\n      mstore\n      0x20\n      add\n      swap1\n      dup2\n      mstore\n      0x20\n      add\n      0x00\n      keccak256\n        /* \"contracts/Election.sol\":1598:1634  voters[msg.sender].isVoterAuthorized */\n      0x02\n      add\n      0x00\n      swap1\n      sload\n      swap1\n      0x0100\n      exp\n      swap1\n      div\n      0xff\n      and\n        /* \"contracts/Election.sol\":1590:1635  require(voters[msg.sender].isVoterAuthorized) */\n      tag_61\n      jumpi\n      0x00\n      dup1\n      revert\n    tag_61:\n        /* \"contracts/Election.sol\":1655:1661  voters */\n      0x03\n        /* \"contracts/Election.sol\":1655:1673  voters[msg.sender] */\n      0x00\n        /* \"contracts/Election.sol\":1662:1672  msg.sender */\n      caller\n        /* \"contracts/Election.sol\":1655:1673  voters[msg.sender] */\n      0xffffffffffffffffffffffffffffffffffffffff\n      and\n      0xffffffffffffffffffffffffffffffffffffffff\n      and\n      dup2\n      mstore\n      0x20\n      add\n      swap1\n      dup2\n      mstore\n      0x20\n      add\n      0x00\n      keccak256\n        /* \"contracts/Election.sol\":1655:1686  voters[msg.sender].isVoterVoted */\n      0x02\n      add\n      0x01\n      swap1\n      sload\n      swap1\n      0x0100\n      exp\n      swap1\n      div\n      0xff\n      and\n        /* \"contracts/Election.sol\":1654:1686  !voters[msg.sender].isVoterVoted */\n      iszero\n        /* \"contracts/Election.sol\":1646:1687  require(!voters[msg.sender].isVoterVoted) */\n      tag_62\n      jumpi\n      0x00\n      dup1\n      revert\n    tag_62:\n        /* \"contracts/Election.sol\":1732:1736  true */\n      0x01\n        /* \"contracts/Election.sol\":1698:1704  voters */\n      0x03\n        /* \"contracts/Election.sol\":1698:1716  voters[msg.sender] */\n      0x00\n        /* \"contracts/Election.sol\":1705:1715  msg.sender */\n      caller\n        /* \"contracts/Election.sol\":1698:1716  voters[msg.sender] */\n      0xffffffffffffffffffffffffffffffffffffffff\n      and\n      0xffffffffffffffffffffffffffffffffffffffff\n      and\n      dup2\n      mstore\n      0x20\n      add\n      swap1\n      dup2\n      mstore\n      0x20\n      add\n      0x00\n      keccak256\n        /* \"contracts/Election.sol\":1698:1729  voters[msg.sender].isVoterVoted */\n      0x02\n      add\n      0x01\n        /* \"contracts/Election.sol\":1698:1736  voters[msg.sender].isVoterVoted = true */\n      0x0100\n      exp\n      dup2\n      sload\n      dup2\n      0xff\n      mul\n      not\n      and\n      swap1\n      dup4\n      iszero\n      iszero\n      mul\n      or\n      swap1\n      sstore\n      pop\n        /* \"contracts/Election.sol\":1749:1759  candidates */\n      0x04\n        /* \"contracts/Election.sol\":1760:1771  _whomToVote */\n      dup2\n        /* \"contracts/Election.sol\":1749:1772  candidates[_whomToVote] */\n      dup2\n      sload\n      dup2\n      lt\n      tag_63\n      jumpi\n      tag_64\n      tag_65\n      jump\t// in\n    tag_64:\n    tag_63:\n      swap1\n      0x00\n      mstore\n      keccak256(0x00, 0x20)\n      swap1\n      0x02\n      mul\n      add\n        /* \"contracts/Election.sol\":1749:1791  candidates[_whomToVote].candidateTotalVote */\n      0x01\n      add\n      0x00\n        /* \"contracts/Election.sol\":1749:1793  candidates[_whomToVote].candidateTotalVote++ */\n      dup2\n      sload\n      dup1\n      swap3\n      swap2\n      swap1\n      tag_67\n      swap1\n      tag_68\n      jump\t// in\n    tag_67:\n      swap2\n      swap1\n      pop\n      sstore\n      pop\n        /* \"contracts/Election.sol\":1804:1814  totalVotes */\n      0x02\n      0x00\n        /* \"contracts/Election.sol\":1804:1816  totalVotes++ */\n      dup2\n      sload\n      dup1\n      swap3\n      swap2\n      swap1\n      tag_69\n      swap1\n      tag_68\n      jump\t// in\n    tag_69:\n      swap2\n      swap1\n      pop\n      sstore\n      pop\n        /* \"contracts/Election.sol\":1540:1824  function vote(uint _whomToVote) public {... */\n      pop\n      jump\t// out\n        /* \"contracts/Election.sol\":148:170  uint public totalVotes */\n    tag_20:\n      sload(0x02)\n      dup2\n      jump\t// out\n        /* \"contracts/Election.sol\":223:252  Candidate[] public candidates */\n    tag_25:\n      0x04\n      dup2\n      dup2\n      sload\n      dup2\n      lt\n      tag_70\n      jumpi\n      0x00\n      dup1\n      revert\n    tag_70:\n      swap1\n      0x00\n      mstore\n      keccak256(0x00, 0x20)\n      swap1\n      0x02\n      mul\n      add\n      0x00\n      swap2\n      pop\n      swap1\n      pop\n      dup1\n      0x00\n      add\n      dup1\n      sload\n      tag_72\n      swap1\n      tag_73\n      jump\t// in\n    tag_72:\n      dup1\n      0x1f\n      add\n      0x20\n      dup1\n      swap2\n      div\n      mul\n      0x20\n      add\n      mload(0x40)\n      swap1\n      dup2\n      add\n      0x40\n      mstore\n      dup1\n      swap3\n      swap2\n      swap1\n      dup2\n      dup2\n      mstore\n      0x20\n      add\n      dup3\n      dup1\n      sload\n      tag_74\n      swap1\n      tag_73\n      jump\t// in\n    tag_74:\n      dup1\n      iszero\n      tag_75\n      jumpi\n      dup1\n      0x1f\n      lt\n      tag_76\n      jumpi\n      0x0100\n      dup1\n      dup4\n      sload\n      div\n      mul\n      dup4\n      mstore\n      swap2\n      0x20\n      add\n      swap2\n      jump(tag_75)\n    tag_76:\n      dup3\n      add\n      swap2\n      swap1\n      0x00\n      mstore\n      keccak256(0x00, 0x20)\n      swap1\n    tag_77:\n      dup2\n      sload\n      dup2\n      mstore\n      swap1\n      0x01\n      add\n      swap1\n      0x20\n      add\n      dup1\n      dup4\n      gt\n      tag_77\n      jumpi\n      dup3\n      swap1\n      sub\n      0x1f\n      and\n      dup3\n      add\n      swap2\n    tag_75:\n      pop\n      pop\n      pop\n      pop\n      pop\n      swap1\n      dup1\n      0x01\n      add\n      sload\n      swap1\n      pop\n      dup3\n      jump\t// out\n        /* \"contracts/Election.sol\":832:999  function addCandidate(string memory _candidateName) public onlyOwner {... */\n    tag_31:\n        /* \"contracts/Election.sol\":552:562  msg.sender */\n      caller\n        /* \"contracts/Election.sol\":543:562  owner == msg.sender */\n      0xffffffffffffffffffffffffffffffffffffffff\n      and\n        /* \"contracts/Election.sol\":543:548  owner */\n      0x00\n      dup1\n      sload\n      swap1\n      0x0100\n      exp\n      swap1\n      div\n      0xffffffffffffffffffffffffffffffffffffffff\n      and\n        /* \"contracts/Election.sol\":543:562  owner == msg.sender */\n      0xffffffffffffffffffffffffffffffffffffffff\n      and\n      eq\n        /* \"contracts/Election.sol\":535:563  require(owner == msg.sender) */\n      tag_79\n      jumpi\n      0x00\n      dup1\n      revert\n    tag_79:\n        /* \"contracts/Election.sol\":912:922  candidates */\n      0x04\n        /* \"contracts/Election.sol\":928:990  Candidate({candidateName:_candidateName,candidateTotalVote:0}) */\n      mload(0x40)\n      dup1\n      0x40\n      add\n      0x40\n      mstore\n      dup1\n        /* \"contracts/Election.sol\":953:967  _candidateName */\n      dup4\n        /* \"contracts/Election.sol\":928:990  Candidate({candidateName:_candidateName,candidateTotalVote:0}) */\n      dup2\n      mstore\n      0x20\n      add\n        /* \"contracts/Election.sol\":987:988  0 */\n      0x00\n        /* \"contracts/Election.sol\":928:990  Candidate({candidateName:_candidateName,candidateTotalVote:0}) */\n      dup2\n      mstore\n      pop\n        /* \"contracts/Election.sol\":912:991  candidates.push(Candidate({candidateName:_candidateName,candidateTotalVote:0})) */\n      swap1\n      dup1\n      0x01\n      dup2\n      sload\n      add\n      dup1\n      dup3\n      sstore\n      dup1\n      swap2\n      pop\n      pop\n      0x01\n      swap1\n      sub\n      swap1\n      0x00\n      mstore\n      keccak256(0x00, 0x20)\n      swap1\n      0x02\n      mul\n      add\n      0x00\n      swap1\n      swap2\n      swap1\n      swap2\n      swap1\n      swap2\n      pop\n      0x00\n      dup3\n      add\n      mload\n      dup2\n      0x00\n      add\n      swap1\n      dup2\n      tag_82\n      swap2\n      swap1\n      tag_83\n      jump\t// in\n    tag_82:\n      pop\n      0x20\n      dup3\n      add\n      mload\n      dup2\n      0x01\n      add\n      sstore\n      pop\n      pop\n        /* \"contracts/Election.sol\":832:999  function addCandidate(string memory _candidateName) public onlyOwner {... */\n      pop\n      jump\t// out\n        /* \"contracts/Election.sol\":115:141  string public electionName */\n    tag_33:\n      0x01\n      dup1\n      sload\n      tag_84\n      swap1\n      tag_73\n      jump\t// in\n    tag_84:\n      dup1\n      0x1f\n      add\n      0x20\n      dup1\n      swap2\n      div\n      mul\n      0x20\n      add\n      mload(0x40)\n      swap1\n      dup2\n      add\n      0x40\n      mstore\n      dup1\n      swap3\n      swap2\n      swap1\n      dup2\n      dup2\n      mstore\n      0x20\n      add\n      dup3\n      dup1\n      sload\n      tag_85\n      swap1\n      tag_73\n      jump\t// in\n    tag_85:\n      dup1\n      iszero\n      tag_86\n      jumpi\n      dup1\n      0x1f\n      lt\n      tag_87\n      jumpi\n      0x0100\n      dup1\n      dup4\n      sload\n      div\n      mul\n      dup4\n      mstore\n      swap2\n      0x20\n      add\n      swap2\n      jump(tag_86)\n    tag_87:\n      dup3\n      add\n      swap2\n      swap1\n      0x00\n      mstore\n      keccak256(0x00, 0x20)\n      swap1\n    tag_88:\n      dup2\n      sload\n      dup2\n      mstore\n      swap1\n      0x01\n      add\n      swap1\n      0x20\n      add\n      dup1\n      dup4\n      gt\n      tag_88\n      jumpi\n      dup3\n      swap1\n      sub\n      0x1f\n      and\n      dup3\n      add\n      swap2\n    tag_86:\n      pop\n      pop\n      pop\n      pop\n      pop\n      dup2\n      jump\t// out\n        /* \"contracts/Election.sol\":88:108  address public owner */\n    tag_37:\n      0x00\n      dup1\n      sload\n      swap1\n      0x0100\n      exp\n      swap1\n      div\n      0xffffffffffffffffffffffffffffffffffffffff\n      and\n      dup2\n      jump\t// out\n        /* \"contracts/Election.sol\":1063:1184  function showCandidateInfo(uint _index) public view returns(Candidate memory){... */\n    tag_42:\n        /* \"contracts/Election.sol\":1123:1139  Candidate memory */\n      tag_89\n      tag_90\n      jump\t// in\n    tag_89:\n        /* \"contracts/Election.sol\":1158:1168  candidates */\n      0x04\n        /* \"contracts/Election.sol\":1169:1175  _index */\n      dup3\n        /* \"contracts/Election.sol\":1158:1176  candidates[_index] */\n      dup2\n      sload\n      dup2\n      lt\n      tag_92\n      jumpi\n      tag_93\n      tag_65\n      jump\t// in\n    tag_93:\n    tag_92:\n      swap1\n      0x00\n      mstore\n      keccak256(0x00, 0x20)\n      swap1\n      0x02\n      mul\n      add\n        /* \"contracts/Election.sol\":1151:1176  return candidates[_index] */\n      mload(0x40)\n      dup1\n      0x40\n      add\n      0x40\n      mstore\n      swap1\n      dup2\n      0x00\n      dup3\n      add\n      dup1\n      sload\n      tag_95\n      swap1\n      tag_73\n      jump\t// in\n    tag_95:\n      dup1\n      0x1f\n      add\n      0x20\n      dup1\n      swap2\n      div\n      mul\n      0x20\n      add\n      mload(0x40)\n      swap1\n      dup2\n      add\n      0x40\n      mstore\n      dup1\n      swap3\n      swap2\n      swap1\n      dup2\n      dup2\n      mstore\n      0x20\n      add\n      dup3\n      dup1\n      sload\n      tag_96\n      swap1\n      tag_73\n      jump\t// in\n    tag_96:\n      dup1\n      iszero\n      tag_97\n      jumpi\n      dup1\n      0x1f\n      lt\n      tag_98\n      jumpi\n      0x0100\n      dup1\n      dup4\n      sload\n      div\n      mul\n      dup4\n      mstore\n      swap2\n      0x20\n      add\n      swap2\n      jump(tag_97)\n    tag_98:\n      dup3\n      add\n      swap2\n      swap1\n      0x00\n      mstore\n      keccak256(0x00, 0x20)\n      swap1\n    tag_99:\n      dup2\n      sload\n      dup2\n      mstore\n      swap1\n      0x01\n      add\n      swap1\n      0x20\n      add\n      dup1\n      dup4\n      gt\n      tag_99\n      jumpi\n      dup3\n      swap1\n      sub\n      0x1f\n      and\n      dup3\n      add\n      swap2\n    tag_97:\n      pop\n      pop\n      pop\n      pop\n      pop\n      dup2\n      mstore\n      0x20\n      add\n      0x01\n      dup3\n      add\n      sload\n      dup2\n      mstore\n      pop\n      pop\n      swap1\n      pop\n        /* \"contracts/Election.sol\":1063:1184  function showCandidateInfo(uint _index) public view returns(Candidate memory){... */\n      swap2\n      swap1\n      pop\n      jump\t// out\n        /* \"contracts/Election.sol\":179:216  mapping(address=>Voter) public voters */\n    tag_48:\n      mstore(0x20, 0x03)\n      dup1\n      0x00\n      mstore\n      keccak256(0x00, 0x40)\n      0x00\n      swap2\n      pop\n      swap1\n      pop\n      dup1\n      0x00\n      add\n      dup1\n      sload\n      tag_100\n      swap1\n      tag_73\n      jump\t// in\n    tag_100:\n      dup1\n      0x1f\n      add\n      0x20\n      dup1\n      swap2\n      div\n      mul\n      0x20\n      add\n      mload(0x40)\n      swap1\n      dup2\n      add\n      0x40\n      mstore\n      dup1\n      swap3\n      swap2\n      swap1\n      dup2\n      dup2\n      mstore\n      0x20\n      add\n      dup3\n      dup1\n      sload\n      tag_101\n      swap1\n      tag_73\n      jump\t// in\n    tag_101:\n      dup1\n      iszero\n      tag_102\n      jumpi\n      dup1\n      0x1f\n      lt\n      tag_103\n      jumpi\n      0x0100\n      dup1\n      dup4\n      sload\n      div\n      mul\n      dup4\n      mstore\n      swap2\n      0x20\n      add\n      swap2\n      jump(tag_102)\n    tag_103:\n      dup3\n      add\n      swap2\n      swap1\n      0x00\n      mstore\n      keccak256(0x00, 0x20)\n      swap1\n    tag_104:\n      dup2\n      sload\n      dup2\n      mstore\n      swap1\n      0x01\n      add\n      swap1\n      0x20\n      add\n      dup1\n      dup4\n      gt\n      tag_104\n      jumpi\n      dup3\n      swap1\n      sub\n      0x1f\n      and\n      dup3\n      add\n      swap2\n    tag_102:\n      pop\n      pop\n      pop\n      pop\n      pop\n      swap1\n      dup1\n      0x01\n      add\n      sload\n      swap1\n      dup1\n      0x02\n      add\n      0x00\n      swap1\n      sload\n      swap1\n      0x0100\n      exp\n      swap1\n      div\n      0xff\n      and\n      swap1\n      dup1\n      0x02\n      add\n      0x01\n      swap1\n      sload\n      swap1\n      0x0100\n      exp\n      swap1\n      div\n      0xff\n      and\n      swap1\n      pop\n      dup5\n      jump\t// out\n        /* \"contracts/Election.sol\":1410:1507  function getCandidatesCount()public view returns(uint){... */\n    tag_52:\n        /* \"contracts/Election.sol\":1459:1463  uint */\n      0x00\n        /* \"contracts/Election.sol\":1482:1492  candidates */\n      0x04\n        /* \"contracts/Election.sol\":1482:1499  candidates.length */\n      dup1\n      sload\n      swap1\n      pop\n        /* \"contracts/Election.sol\":1475:1499  return candidates.length */\n      swap1\n      pop\n        /* \"contracts/Election.sol\":1410:1507  function getCandidatesCount()public view returns(uint){... */\n      swap1\n      jump\t// out\n        /* \"contracts/Election.sol\":630:790  function startElection(string memory _electionName) public {... */\n    tag_56:\n        /* \"contracts/Election.sol\":715:728  _electionName */\n      dup1\n        /* \"contracts/Election.sol\":700:712  electionName */\n      0x01\n        /* \"contracts/Election.sol\":700:728  electionName = _electionName */\n      swap1\n      dup2\n      tag_107\n      swap2\n      swap1\n      tag_83\n      jump\t// in\n    tag_107:\n      pop\n        /* \"contracts/Election.sol\":747:757  msg.sender */\n      caller\n        /* \"contracts/Election.sol\":739:744  owner */\n      0x00\n      dup1\n        /* \"contracts/Election.sol\":739:757  owner = msg.sender */\n      0x0100\n      exp\n      dup2\n      sload\n      dup2\n      0xffffffffffffffffffffffffffffffffffffffff\n      mul\n      not\n      and\n      swap1\n      dup4\n      0xffffffffffffffffffffffffffffffffffffffff\n      and\n      mul\n      or\n      swap1\n      sstore\n      pop\n        /* \"contracts/Election.sol\":781:782  0 */\n      0x00\n        /* \"contracts/Election.sol\":768:778  totalVotes */\n      0x02\n        /* \"contracts/Election.sol\":768:782  totalVotes = 0 */\n      dup2\n      swap1\n      sstore\n      pop\n        /* \"contracts/Election.sol\":630:790  function startElection(string memory _electionName) public {... */\n      pop\n      jump\t// out\n        /* \"contracts/Election.sol\":1228:1357  function authorizeVoter(address _voterAddress) public onlyOwner {... */\n    tag_59:\n        /* \"contracts/Election.sol\":552:562  msg.sender */\n      caller\n        /* \"contracts/Election.sol\":543:562  owner == msg.sender */\n      0xffffffffffffffffffffffffffffffffffffffff\n      and\n        /* \"contracts/Election.sol\":543:548  owner */\n      0x00\n      dup1\n      sload\n      swap1\n      0x0100\n      exp\n      swap1\n      div\n      0xffffffffffffffffffffffffffffffffffffffff\n      and\n        /* \"contracts/Election.sol\":543:562  owner == msg.sender */\n      0xffffffffffffffffffffffffffffffffffffffff\n      and\n      eq\n        /* \"contracts/Election.sol\":535:563  require(owner == msg.sender) */\n      tag_109\n      jumpi\n      0x00\n      dup1\n      revert\n    tag_109:\n        /* \"contracts/Election.sol\":1345:1349  true */\n      0x01\n        /* \"contracts/Election.sol\":1303:1309  voters */\n      0x03\n        /* \"contracts/Election.sol\":1303:1324  voters[_voterAddress] */\n      0x00\n        /* \"contracts/Election.sol\":1310:1323  _voterAddress */\n      dup4\n        /* \"contracts/Election.sol\":1303:1324  voters[_voterAddress] */\n      0xffffffffffffffffffffffffffffffffffffffff\n      and\n      0xffffffffffffffffffffffffffffffffffffffff\n      and\n      dup2\n      mstore\n      0x20\n      add\n      swap1\n      dup2\n      mstore\n      0x20\n      add\n      0x00\n      keccak256\n        /* \"contracts/Election.sol\":1303:1342  voters[_voterAddress].isVoterAuthorized */\n      0x02\n      add\n      0x00\n        /* \"contracts/Election.sol\":1303:1349  voters[_voterAddress].isVoterAuthorized = true */\n      0x0100\n      exp\n      dup2\n      sload\n      dup2\n      0xff\n      mul\n      not\n      and\n      swap1\n      dup4\n      iszero\n      iszero\n      mul\n      or\n      swap1\n      sstore\n      pop\n        /* \"contracts/Election.sol\":1228:1357  function authorizeVoter(address _voterAddress) public onlyOwner {... */\n      pop\n      jump\t// out\n    tag_90:\n      mload(0x40)\n      dup1\n      0x40\n      add\n      0x40\n      mstore\n      dup1\n      0x60\n      dup2\n      mstore\n      0x20\n      add\n      0x00\n      dup2\n      mstore\n      pop\n      swap1\n      jump\t// out\n        /* \"#utility.yul\":7:82   */\n    tag_111:\n        /* \"#utility.yul\":40:46   */\n      0x00\n        /* \"#utility.yul\":73:75   */\n      0x40\n        /* \"#utility.yul\":67:76   */\n      mload\n        /* \"#utility.yul\":57:76   */\n      swap1\n      pop\n        /* \"#utility.yul\":7:82   */\n      swap1\n      jump\t// out\n        /* \"#utility.yul\":88:205   */\n    tag_112:\n        /* \"#utility.yul\":197:198   */\n      0x00\n        /* \"#utility.yul\":194:195   */\n      dup1\n        /* \"#utility.yul\":187:199   */\n      revert\n        /* \"#utility.yul\":211:328   */\n    tag_113:\n        /* \"#utility.yul\":320:321   */\n      0x00\n        /* \"#utility.yul\":317:318   */\n      dup1\n        /* \"#utility.yul\":310:322   */\n      revert\n        /* \"#utility.yul\":334:411   */\n    tag_114:\n        /* \"#utility.yul\":371:378   */\n      0x00\n        /* \"#utility.yul\":400:405   */\n      dup2\n        /* \"#utility.yul\":389:405   */\n      swap1\n      pop\n        /* \"#utility.yul\":334:411   */\n      swap2\n      swap1\n      pop\n      jump\t// out\n        /* \"#utility.yul\":417:539   */\n    tag_115:\n        /* \"#utility.yul\":490:514   */\n      tag_166\n        /* \"#utility.yul\":508:513   */\n      dup2\n        /* \"#utility.yul\":490:514   */\n      tag_114\n      jump\t// in\n    tag_166:\n        /* \"#utility.yul\":483:488   */\n      dup2\n        /* \"#utility.yul\":480:515   */\n      eq\n        /* \"#utility.yul\":470:533   */\n      tag_167\n      jumpi\n        /* \"#utility.yul\":529:530   */\n      0x00\n        /* \"#utility.yul\":526:527   */\n      dup1\n        /* \"#utility.yul\":519:531   */\n      revert\n        /* \"#utility.yul\":470:533   */\n    tag_167:\n        /* \"#utility.yul\":417:539   */\n      pop\n      jump\t// out\n        /* \"#utility.yul\":545:684   */\n    tag_116:\n        /* \"#utility.yul\":591:596   */\n      0x00\n        /* \"#utility.yul\":629:635   */\n      dup2\n        /* \"#utility.yul\":616:636   */\n      calldataload\n        /* \"#utility.yul\":607:636   */\n      swap1\n      pop\n        /* \"#utility.yul\":645:678   */\n      tag_169\n        /* \"#utility.yul\":672:677   */\n      dup2\n        /* \"#utility.yul\":645:678   */\n      tag_115\n      jump\t// in\n    tag_169:\n        /* \"#utility.yul\":545:684   */\n      swap3\n      swap2\n      pop\n      pop\n      jump\t// out\n        /* \"#utility.yul\":690:1019   */\n    tag_17:\n        /* \"#utility.yul\":749:755   */\n      0x00\n        /* \"#utility.yul\":798:800   */\n      0x20\n        /* \"#utility.yul\":786:795   */\n      dup3\n        /* \"#utility.yul\":777:784   */\n      dup5\n        /* \"#utility.yul\":773:796   */\n      sub\n        /* \"#utility.yul\":769:801   */\n      slt\n        /* \"#utility.yul\":766:885   */\n      iszero\n      tag_171\n      jumpi\n        /* \"#utility.yul\":804:883   */\n      tag_172\n      tag_112\n      jump\t// in\n    tag_172:\n        /* \"#utility.yul\":766:885   */\n    tag_171:\n        /* \"#utility.yul\":924:925   */\n      0x00\n        /* \"#utility.yul\":949:1002   */\n      tag_173\n        /* \"#utility.yul\":994:1001   */\n      dup5\n        /* \"#utility.yul\":985:991   */\n      dup3\n        /* \"#utility.yul\":974:983   */\n      dup6\n        /* \"#utility.yul\":970:992   */\n      add\n        /* \"#utility.yul\":949:1002   */\n      tag_116\n      jump\t// in\n    tag_173:\n        /* \"#utility.yul\":939:1002   */\n      swap2\n      pop\n        /* \"#utility.yul\":895:1012   */\n      pop\n        /* \"#utility.yul\":690:1019   */\n      swap3\n      swap2\n      pop\n      pop\n      jump\t// out\n        /* \"#utility.yul\":1025:1143   */\n    tag_117:\n        /* \"#utility.yul\":1112:1136   */\n      tag_175\n        /* \"#utility.yul\":1130:1135   */\n      dup2\n        /* \"#utility.yul\":1112:1136   */\n      tag_114\n      jump\t// in\n    tag_175:\n        /* \"#utility.yul\":1107:1110   */\n      dup3\n        /* \"#utility.yul\":1100:1137   */\n      mstore\n        /* \"#utility.yul\":1025:1143   */\n      pop\n      pop\n      jump\t// out\n        /* \"#utility.yul\":1149:1371   */\n    tag_22:\n        /* \"#utility.yul\":1242:1246   */\n      0x00\n        /* \"#utility.yul\":1280:1282   */\n      0x20\n        /* \"#utility.yul\":1269:1278   */\n      dup3\n        /* \"#utility.yul\":1265:1283   */\n      add\n        /* \"#utility.yul\":1257:1283   */\n      swap1\n      pop\n        /* \"#utility.yul\":1293:1364   */\n      tag_177\n        /* \"#utility.yul\":1361:1362   */\n      0x00\n        /* \"#utility.yul\":1350:1359   */\n      dup4\n        /* \"#utility.yul\":1346:1363   */\n      add\n        /* \"#utility.yul\":1337:1343   */\n      dup5\n        /* \"#utility.yul\":1293:1364   */\n      tag_117\n      jump\t// in\n    tag_177:\n        /* \"#utility.yul\":1149:1371   */\n      swap3\n      swap2\n      pop\n      pop\n      jump\t// out\n        /* \"#utility.yul\":1377:1476   */\n    tag_118:\n        /* \"#utility.yul\":1429:1435   */\n      0x00\n        /* \"#utility.yul\":1463:1468   */\n      dup2\n        /* \"#utility.yul\":1457:1469   */\n      mload\n        /* \"#utility.yul\":1447:1469   */\n      swap1\n      pop\n        /* \"#utility.yul\":1377:1476   */\n      swap2\n      swap1\n      pop\n      jump\t// out\n        /* \"#utility.yul\":1482:1651   */\n    tag_119:\n        /* \"#utility.yul\":1566:1577   */\n      0x00\n        /* \"#utility.yul\":1600:1606   */\n      dup3\n        /* \"#utility.yul\":1595:1598   */\n      dup3\n        /* \"#utility.yul\":1588:1607   */\n      mstore\n        /* \"#utility.yul\":1640:1644   */\n      0x20\n        /* \"#utility.yul\":1635:1638   */\n      dup3\n        /* \"#utility.yul\":1631:1645   */\n      add\n        /* \"#utility.yul\":1616:1645   */\n      swap1\n      pop\n        /* \"#utility.yul\":1482:1651   */\n      swap3\n      swap2\n      pop\n      pop\n      jump\t// out\n        /* \"#utility.yul\":1657:1903   */\n    tag_120:\n        /* \"#utility.yul\":1738:1739   */\n      0x00\n        /* \"#utility.yul\":1748:1861   */\n    tag_181:\n        /* \"#utility.yul\":1762:1768   */\n      dup4\n        /* \"#utility.yul\":1759:1760   */\n      dup2\n        /* \"#utility.yul\":1756:1769   */\n      lt\n        /* \"#utility.yul\":1748:1861   */\n      iszero\n      tag_183\n      jumpi\n        /* \"#utility.yul\":1847:1848   */\n      dup1\n        /* \"#utility.yul\":1842:1845   */\n      dup3\n        /* \"#utility.yul\":1838:1849   */\n      add\n        /* \"#utility.yul\":1832:1850   */\n      mload\n        /* \"#utility.yul\":1828:1829   */\n      dup2\n        /* \"#utility.yul\":1823:1826   */\n      dup5\n        /* \"#utility.yul\":1819:1830   */\n      add\n        /* \"#utility.yul\":1812:1851   */\n      mstore\n        /* \"#utility.yul\":1784:1786   */\n      0x20\n        /* \"#utility.yul\":1781:1782   */\n      dup2\n        /* \"#utility.yul\":1777:1787   */\n      add\n        /* \"#utility.yul\":1772:1787   */\n      swap1\n      pop\n        /* \"#utility.yul\":1748:1861   */\n      jump(tag_181)\n    tag_183:\n        /* \"#utility.yul\":1895:1896   */\n      0x00\n        /* \"#utility.yul\":1886:1892   */\n      dup5\n        /* \"#utility.yul\":1881:1884   */\n      dup5\n        /* \"#utility.yul\":1877:1893   */\n      add\n        /* \"#utility.yul\":1870:1897   */\n      mstore\n        /* \"#utility.yul\":1719:1903   */\n      pop\n        /* \"#utility.yul\":1657:1903   */\n      pop\n      pop\n      pop\n      jump\t// out\n        /* \"#utility.yul\":1909:2011   */\n    tag_121:\n        /* \"#utility.yul\":1950:1956   */\n      0x00\n        /* \"#utility.yul\":2001:2003   */\n      0x1f\n        /* \"#utility.yul\":1997:2004   */\n      not\n        /* \"#utility.yul\":1992:1994   */\n      0x1f\n        /* \"#utility.yul\":1985:1990   */\n      dup4\n        /* \"#utility.yul\":1981:1995   */\n      add\n        /* \"#utility.yul\":1977:2005   */\n      and\n        /* \"#utility.yul\":1967:2005   */\n      swap1\n      pop\n        /* \"#utility.yul\":1909:2011   */\n      swap2\n      swap1\n      pop\n      jump\t// out\n        /* \"#utility.yul\":2017:2394   */\n    tag_122:\n        /* \"#utility.yul\":2105:2108   */\n      0x00\n        /* \"#utility.yul\":2133:2172   */\n      tag_186\n        /* \"#utility.yul\":2166:2171   */\n      dup3\n        /* \"#utility.yul\":2133:2172   */\n      tag_118\n      jump\t// in\n    tag_186:\n        /* \"#utility.yul\":2188:2259   */\n      tag_187\n        /* \"#utility.yul\":2252:2258   */\n      dup2\n        /* \"#utility.yul\":2247:2250   */\n      dup6\n        /* \"#utility.yul\":2188:2259   */\n      tag_119\n      jump\t// in\n    tag_187:\n        /* \"#utility.yul\":2181:2259   */\n      swap4\n      pop\n        /* \"#utility.yul\":2268:2333   */\n      tag_188\n        /* \"#utility.yul\":2326:2332   */\n      dup2\n        /* \"#utility.yul\":2321:2324   */\n      dup6\n        /* \"#utility.yul\":2314:2318   */\n      0x20\n        /* \"#utility.yul\":2307:2312   */\n      dup7\n        /* \"#utility.yul\":2303:2319   */\n      add\n        /* \"#utility.yul\":2268:2333   */\n      tag_120\n      jump\t// in\n    tag_188:\n        /* \"#utility.yul\":2358:2387   */\n      tag_189\n        /* \"#utility.yul\":2380:2386   */\n      dup2\n        /* \"#utility.yul\":2358:2387   */\n      tag_121\n      jump\t// in\n    tag_189:\n        /* \"#utility.yul\":2353:2356   */\n      dup5\n        /* \"#utility.yul\":2349:2388   */\n      add\n        /* \"#utility.yul\":2342:2388   */\n      swap2\n      pop\n        /* \"#utility.yul\":2109:2394   */\n      pop\n        /* \"#utility.yul\":2017:2394   */\n      swap3\n      swap2\n      pop\n      pop\n      jump\t// out\n        /* \"#utility.yul\":2400:2823   */\n    tag_27:\n        /* \"#utility.yul\":2541:2545   */\n      0x00\n        /* \"#utility.yul\":2579:2581   */\n      0x40\n        /* \"#utility.yul\":2568:2577   */\n      dup3\n        /* \"#utility.yul\":2564:2582   */\n      add\n        /* \"#utility.yul\":2556:2582   */\n      swap1\n      pop\n        /* \"#utility.yul\":2628:2637   */\n      dup2\n        /* \"#utility.yul\":2622:2626   */\n      dup2\n        /* \"#utility.yul\":2618:2638   */\n      sub\n        /* \"#utility.yul\":2614:2615   */\n      0x00\n        /* \"#utility.yul\":2603:2612   */\n      dup4\n        /* \"#utility.yul\":2599:2616   */\n      add\n        /* \"#utility.yul\":2592:2639   */\n      mstore\n        /* \"#utility.yul\":2656:2734   */\n      tag_191\n        /* \"#utility.yul\":2729:2733   */\n      dup2\n        /* \"#utility.yul\":2720:2726   */\n      dup6\n        /* \"#utility.yul\":2656:2734   */\n      tag_122\n      jump\t// in\n    tag_191:\n        /* \"#utility.yul\":2648:2734   */\n      swap1\n      pop\n        /* \"#utility.yul\":2744:2816   */\n      tag_192\n        /* \"#utility.yul\":2812:2814   */\n      0x20\n        /* \"#utility.yul\":2801:2810   */\n      dup4\n        /* \"#utility.yul\":2797:2815   */\n      add\n        /* \"#utility.yul\":2788:2794   */\n      dup5\n        /* \"#utility.yul\":2744:2816   */\n      tag_117\n      jump\t// in\n    tag_192:\n        /* \"#utility.yul\":2400:2823   */\n      swap4\n      swap3\n      pop\n      pop\n      pop\n      jump\t// out\n        /* \"#utility.yul\":2829:2946   */\n    tag_123:\n        /* \"#utility.yul\":2938:2939   */\n      0x00\n        /* \"#utility.yul\":2935:2936   */\n      dup1\n        /* \"#utility.yul\":2928:2940   */\n      revert\n        /* \"#utility.yul\":2952:3069   */\n    tag_124:\n        /* \"#utility.yul\":3061:3062   */\n      0x00\n        /* \"#utility.yul\":3058:3059   */\n      dup1\n        /* \"#utility.yul\":3051:3063   */\n      revert\n        /* \"#utility.yul\":3075:3255   */\n    tag_125:\n        /* \"#utility.yul\":3123:3200   */\n      0x4e487b7100000000000000000000000000000000000000000000000000000000\n        /* \"#utility.yul\":3120:3121   */\n      0x00\n        /* \"#utility.yul\":3113:3201   */\n      mstore\n        /* \"#utility.yul\":3220:3224   */\n      0x41\n        /* \"#utility.yul\":3217:3218   */\n      0x04\n        /* \"#utility.yul\":3210:3225   */\n      mstore\n        /* \"#utility.yul\":3244:3248   */\n      0x24\n        /* \"#utility.yul\":3241:3242   */\n      0x00\n        /* \"#utility.yul\":3234:3249   */\n      revert\n        /* \"#utility.yul\":3261:3542   */\n    tag_126:\n        /* \"#utility.yul\":3344:3371   */\n      tag_197\n        /* \"#utility.yul\":3366:3370   */\n      dup3\n        /* \"#utility.yul\":3344:3371   */\n      tag_121\n      jump\t// in\n    tag_197:\n        /* \"#utility.yul\":3336:3342   */\n      dup2\n        /* \"#utility.yul\":3332:3372   */\n      add\n        /* \"#utility.yul\":3474:3480   */\n      dup2\n        /* \"#utility.yul\":3462:3472   */\n      dup2\n        /* \"#utility.yul\":3459:3481   */\n      lt\n        /* \"#utility.yul\":3438:3456   */\n      0xffffffffffffffff\n        /* \"#utility.yul\":3426:3436   */\n      dup3\n        /* \"#utility.yul\":3423:3457   */\n      gt\n        /* \"#utility.yul\":3420:3482   */\n      or\n        /* \"#utility.yul\":3417:3505   */\n      iszero\n      tag_198\n      jumpi\n        /* \"#utility.yul\":3485:3503   */\n      tag_199\n      tag_125\n      jump\t// in\n    tag_199:\n        /* \"#utility.yul\":3417:3505   */\n    tag_198:\n        /* \"#utility.yul\":3525:3535   */\n      dup1\n        /* \"#utility.yul\":3521:3523   */\n      0x40\n        /* \"#utility.yul\":3514:3536   */\n      mstore\n        /* \"#utility.yul\":3304:3542   */\n      pop\n        /* \"#utility.yul\":3261:3542   */\n      pop\n      pop\n      jump\t// out\n        /* \"#utility.yul\":3548:3677   */\n    tag_127:\n        /* \"#utility.yul\":3582:3588   */\n      0x00\n        /* \"#utility.yul\":3609:3629   */\n      tag_201\n      tag_111\n      jump\t// in\n    tag_201:\n        /* \"#utility.yul\":3599:3629   */\n      swap1\n      pop\n        /* \"#utility.yul\":3638:3671   */\n      tag_202\n        /* \"#utility.yul\":3666:3670   */\n      dup3\n        /* \"#utility.yul\":3658:3664   */\n      dup3\n        /* \"#utility.yul\":3638:3671   */\n      tag_126\n      jump\t// in\n    tag_202:\n        /* \"#utility.yul\":3548:3677   */\n      swap2\n      swap1\n      pop\n      jump\t// out\n        /* \"#utility.yul\":3683:3991   */\n    tag_128:\n        /* \"#utility.yul\":3745:3749   */\n      0x00\n        /* \"#utility.yul\":3835:3853   */\n      0xffffffffffffffff\n        /* \"#utility.yul\":3827:3833   */\n      dup3\n        /* \"#utility.yul\":3824:3854   */\n      gt\n        /* \"#utility.yul\":3821:3877   */\n      iszero\n      tag_204\n      jumpi\n        /* \"#utility.yul\":3857:3875   */\n      tag_205\n      tag_125\n      jump\t// in\n    tag_205:\n        /* \"#utility.yul\":3821:3877   */\n    tag_204:\n        /* \"#utility.yul\":3895:3924   */\n      tag_206\n        /* \"#utility.yul\":3917:3923   */\n      dup3\n        /* \"#utility.yul\":3895:3924   */\n      tag_121\n      jump\t// in\n    tag_206:\n        /* \"#utility.yul\":3887:3924   */\n      swap1\n      pop\n        /* \"#utility.yul\":3979:3983   */\n      0x20\n        /* \"#utility.yul\":3973:3977   */\n      dup2\n        /* \"#utility.yul\":3969:3984   */\n      add\n        /* \"#utility.yul\":3961:3984   */\n      swap1\n      pop\n        /* \"#utility.yul\":3683:3991   */\n      swap2\n      swap1\n      pop\n      jump\t// out\n        /* \"#utility.yul\":3997:4143   */\n    tag_129:\n        /* \"#utility.yul\":4094:4100   */\n      dup3\n        /* \"#utility.yul\":4089:4092   */\n      dup2\n        /* \"#utility.yul\":4084:4087   */\n      dup4\n        /* \"#utility.yul\":4071:4101   */\n      calldatacopy\n        /* \"#utility.yul\":4135:4136   */\n      0x00\n        /* \"#utility.yul\":4126:4132   */\n      dup4\n        /* \"#utility.yul\":4121:4124   */\n      dup4\n        /* \"#utility.yul\":4117:4133   */\n      add\n        /* \"#utility.yul\":4110:4137   */\n      mstore\n        /* \"#utility.yul\":3997:4143   */\n      pop\n      pop\n      pop\n      jump\t// out\n        /* \"#utility.yul\":4149:4574   */\n    tag_130:\n        /* \"#utility.yul\":4227:4232   */\n      0x00\n        /* \"#utility.yul\":4252:4318   */\n      tag_209\n        /* \"#utility.yul\":4268:4317   */\n      tag_210\n        /* \"#utility.yul\":4310:4316   */\n      dup5\n        /* \"#utility.yul\":4268:4317   */\n      tag_128\n      jump\t// in\n    tag_210:\n        /* \"#utility.yul\":4252:4318   */\n      tag_127\n      jump\t// in\n    tag_209:\n        /* \"#utility.yul\":4243:4318   */\n      swap1\n      pop\n        /* \"#utility.yul\":4341:4347   */\n      dup3\n        /* \"#utility.yul\":4334:4339   */\n      dup2\n        /* \"#utility.yul\":4327:4348   */\n      mstore\n        /* \"#utility.yul\":4379:4383   */\n      0x20\n        /* \"#utility.yul\":4372:4377   */\n      dup2\n        /* \"#utility.yul\":4368:4384   */\n      add\n        /* \"#utility.yul\":4417:4420   */\n      dup5\n        /* \"#utility.yul\":4408:4414   */\n      dup5\n        /* \"#utility.yul\":4403:4406   */\n      dup5\n        /* \"#utility.yul\":4399:4415   */\n      add\n        /* \"#utility.yul\":4396:4421   */\n      gt\n        /* \"#utility.yul\":4393:4505   */\n      iszero\n      tag_211\n      jumpi\n        /* \"#utility.yul\":4424:4503   */\n      tag_212\n      tag_124\n      jump\t// in\n    tag_212:\n        /* \"#utility.yul\":4393:4505   */\n    tag_211:\n        /* \"#utility.yul\":4514:4568   */\n      tag_213\n        /* \"#utility.yul\":4561:4567   */\n      dup5\n        /* \"#utility.yul\":4556:4559   */\n      dup3\n        /* \"#utility.yul\":4551:4554   */\n      dup6\n        /* \"#utility.yul\":4514:4568   */\n      tag_129\n      jump\t// in\n    tag_213:\n        /* \"#utility.yul\":4233:4574   */\n      pop\n        /* \"#utility.yul\":4149:4574   */\n      swap4\n      swap3\n      pop\n      pop\n      pop\n      jump\t// out\n        /* \"#utility.yul\":4594:4934   */\n    tag_131:\n        /* \"#utility.yul\":4650:4655   */\n      0x00\n        /* \"#utility.yul\":4699:4702   */\n      dup3\n        /* \"#utility.yul\":4692:4696   */\n      0x1f\n        /* \"#utility.yul\":4684:4690   */\n      dup4\n        /* \"#utility.yul\":4680:4697   */\n      add\n        /* \"#utility.yul\":4676:4703   */\n      slt\n        /* \"#utility.yul\":4666:4788   */\n      tag_215\n      jumpi\n        /* \"#utility.yul\":4707:4786   */\n      tag_216\n      tag_123\n      jump\t// in\n    tag_216:\n        /* \"#utility.yul\":4666:4788   */\n    tag_215:\n        /* \"#utility.yul\":4824:4830   */\n      dup2\n        /* \"#utility.yul\":4811:4831   */\n      calldataload\n        /* \"#utility.yul\":4849:4928   */\n      tag_217\n        /* \"#utility.yul\":4924:4927   */\n      dup5\n        /* \"#utility.yul\":4916:4922   */\n      dup3\n        /* \"#utility.yul\":4909:4913   */\n      0x20\n        /* \"#utility.yul\":4901:4907   */\n      dup7\n        /* \"#utility.yul\":4897:4914   */\n      add\n        /* \"#utility.yul\":4849:4928   */\n      tag_130\n      jump\t// in\n    tag_217:\n        /* \"#utility.yul\":4840:4928   */\n      swap2\n      pop\n        /* \"#utility.yul\":4656:4934   */\n      pop\n        /* \"#utility.yul\":4594:4934   */\n      swap3\n      swap2\n      pop\n      pop\n      jump\t// out\n        /* \"#utility.yul\":4940:5449   */\n    tag_30:\n        /* \"#utility.yul\":5009:5015   */\n      0x00\n        /* \"#utility.yul\":5058:5060   */\n      0x20\n        /* \"#utility.yul\":5046:5055   */\n      dup3\n        /* \"#utility.yul\":5037:5044   */\n      dup5\n        /* \"#utility.yul\":5033:5056   */\n      sub\n        /* \"#utility.yul\":5029:5061   */\n      slt\n        /* \"#utility.yul\":5026:5145   */\n      iszero\n      tag_219\n      jumpi\n        /* \"#utility.yul\":5064:5143   */\n      tag_220\n      tag_112\n      jump\t// in\n    tag_220:\n        /* \"#utility.yul\":5026:5145   */\n    tag_219:\n        /* \"#utility.yul\":5212:5213   */\n      0x00\n        /* \"#utility.yul\":5201:5210   */\n      dup3\n        /* \"#utility.yul\":5197:5214   */\n      add\n        /* \"#utility.yul\":5184:5215   */\n      calldataload\n        /* \"#utility.yul\":5242:5260   */\n      0xffffffffffffffff\n        /* \"#utility.yul\":5234:5240   */\n      dup2\n        /* \"#utility.yul\":5231:5261   */\n      gt\n        /* \"#utility.yul\":5228:5345   */\n      iszero\n      tag_221\n      jumpi\n        /* \"#utility.yul\":5264:5343   */\n      tag_222\n      tag_113\n      jump\t// in\n    tag_222:\n        /* \"#utility.yul\":5228:5345   */\n    tag_221:\n        /* \"#utility.yul\":5369:5432   */\n      tag_223\n        /* \"#utility.yul\":5424:5431   */\n      dup5\n        /* \"#utility.yul\":5415:5421   */\n      dup3\n        /* \"#utility.yul\":5404:5413   */\n      dup6\n        /* \"#utility.yul\":5400:5422   */\n      add\n        /* \"#utility.yul\":5369:5432   */\n      tag_131\n      jump\t// in\n    tag_223:\n        /* \"#utility.yul\":5359:5432   */\n      swap2\n      pop\n        /* \"#utility.yul\":5155:5442   */\n      pop\n        /* \"#utility.yul\":4940:5449   */\n      swap3\n      swap2\n      pop\n      pop\n      jump\t// out\n        /* \"#utility.yul\":5455:5768   */\n    tag_35:\n        /* \"#utility.yul\":5568:5572   */\n      0x00\n        /* \"#utility.yul\":5606:5608   */\n      0x20\n        /* \"#utility.yul\":5595:5604   */\n      dup3\n        /* \"#utility.yul\":5591:5609   */\n      add\n        /* \"#utility.yul\":5583:5609   */\n      swap1\n      pop\n        /* \"#utility.yul\":5655:5664   */\n      dup2\n        /* \"#utility.yul\":5649:5653   */\n      dup2\n        /* \"#utility.yul\":5645:5665   */\n      sub\n        /* \"#utility.yul\":5641:5642   */\n      0x00\n        /* \"#utility.yul\":5630:5639   */\n      dup4\n        /* \"#utility.yul\":5626:5643   */\n      add\n        /* \"#utility.yul\":5619:5666   */\n      mstore\n        /* \"#utility.yul\":5683:5761   */\n      tag_225\n        /* \"#utility.yul\":5756:5760   */\n      dup2\n        /* \"#utility.yul\":5747:5753   */\n      dup5\n        /* \"#utility.yul\":5683:5761   */\n      tag_122\n      jump\t// in\n    tag_225:\n        /* \"#utility.yul\":5675:5761   */\n      swap1\n      pop\n        /* \"#utility.yul\":5455:5768   */\n      swap3\n      swap2\n      pop\n      pop\n      jump\t// out\n        /* \"#utility.yul\":5774:5900   */\n    tag_132:\n        /* \"#utility.yul\":5811:5818   */\n      0x00\n        /* \"#utility.yul\":5851:5893   */\n      0xffffffffffffffffffffffffffffffffffffffff\n        /* \"#utility.yul\":5844:5849   */\n      dup3\n        /* \"#utility.yul\":5840:5894   */\n      and\n        /* \"#utility.yul\":5829:5894   */\n      swap1\n      pop\n        /* \"#utility.yul\":5774:5900   */\n      swap2\n      swap1\n      pop\n      jump\t// out\n        /* \"#utility.yul\":5906:6002   */\n    tag_133:\n        /* \"#utility.yul\":5943:5950   */\n      0x00\n        /* \"#utility.yul\":5972:5996   */\n      tag_228\n        /* \"#utility.yul\":5990:5995   */\n      dup3\n        /* \"#utility.yul\":5972:5996   */\n      tag_132\n      jump\t// in\n    tag_228:\n        /* \"#utility.yul\":5961:5996   */\n      swap1\n      pop\n        /* \"#utility.yul\":5906:6002   */\n      swap2\n      swap1\n      pop\n      jump\t// out\n        /* \"#utility.yul\":6008:6126   */\n    tag_134:\n        /* \"#utility.yul\":6095:6119   */\n      tag_230\n        /* \"#utility.yul\":6113:6118   */\n      dup2\n        /* \"#utility.yul\":6095:6119   */\n      tag_133\n      jump\t// in\n    tag_230:\n        /* \"#utility.yul\":6090:6093   */\n      dup3\n        /* \"#utility.yul\":6083:6120   */\n      mstore\n        /* \"#utility.yul\":6008:6126   */\n      pop\n      pop\n      jump\t// out\n        /* \"#utility.yul\":6132:6354   */\n    tag_39:\n        /* \"#utility.yul\":6225:6229   */\n      0x00\n        /* \"#utility.yul\":6263:6265   */\n      0x20\n        /* \"#utility.yul\":6252:6261   */\n      dup3\n        /* \"#utility.yul\":6248:6266   */\n      add\n        /* \"#utility.yul\":6240:6266   */\n      swap1\n      pop\n        /* \"#utility.yul\":6276:6347   */\n      tag_232\n        /* \"#utility.yul\":6344:6345   */\n      0x00\n        /* \"#utility.yul\":6333:6342   */\n      dup4\n        /* \"#utility.yul\":6329:6346   */\n      add\n        /* \"#utility.yul\":6320:6326   */\n      dup5\n        /* \"#utility.yul\":6276:6347   */\n      tag_134\n      jump\t// in\n    tag_232:\n        /* \"#utility.yul\":6132:6354   */\n      swap3\n      swap2\n      pop\n      pop\n      jump\t// out\n        /* \"#utility.yul\":6360:6519   */\n    tag_135:\n        /* \"#utility.yul\":6434:6445   */\n      0x00\n        /* \"#utility.yul\":6468:6474   */\n      dup3\n        /* \"#utility.yul\":6463:6466   */\n      dup3\n        /* \"#utility.yul\":6456:6475   */\n      mstore\n        /* \"#utility.yul\":6508:6512   */\n      0x20\n        /* \"#utility.yul\":6503:6506   */\n      dup3\n        /* \"#utility.yul\":6499:6513   */\n      add\n        /* \"#utility.yul\":6484:6513   */\n      swap1\n      pop\n        /* \"#utility.yul\":6360:6519   */\n      swap3\n      swap2\n      pop\n      pop\n      jump\t// out\n        /* \"#utility.yul\":6525:6882   */\n    tag_136:\n        /* \"#utility.yul\":6603:6606   */\n      0x00\n        /* \"#utility.yul\":6631:6670   */\n      tag_235\n        /* \"#utility.yul\":6664:6669   */\n      dup3\n        /* \"#utility.yul\":6631:6670   */\n      tag_118\n      jump\t// in\n    tag_235:\n        /* \"#utility.yul\":6686:6747   */\n      tag_236\n        /* \"#utility.yul\":6740:6746   */\n      dup2\n        /* \"#utility.yul\":6735:6738   */\n      dup6\n        /* \"#utility.yul\":6686:6747   */\n      tag_135\n      jump\t// in\n    tag_236:\n        /* \"#utility.yul\":6679:6747   */\n      swap4\n      pop\n        /* \"#utility.yul\":6756:6821   */\n      tag_237\n        /* \"#utility.yul\":6814:6820   */\n      dup2\n        /* \"#utility.yul\":6809:6812   */\n      dup6\n        /* \"#utility.yul\":6802:6806   */\n      0x20\n        /* \"#utility.yul\":6795:6800   */\n      dup7\n        /* \"#utility.yul\":6791:6807   */\n      add\n        /* \"#utility.yul\":6756:6821   */\n      tag_120\n      jump\t// in\n    tag_237:\n        /* \"#utility.yul\":6846:6875   */\n      tag_238\n        /* \"#utility.yul\":6868:6874   */\n      dup2\n        /* \"#utility.yul\":6846:6875   */\n      tag_121\n      jump\t// in\n    tag_238:\n        /* \"#utility.yul\":6841:6844   */\n      dup5\n        /* \"#utility.yul\":6837:6876   */\n      add\n        /* \"#utility.yul\":6830:6876   */\n      swap2\n      pop\n        /* \"#utility.yul\":6607:6882   */\n      pop\n        /* \"#utility.yul\":6525:6882   */\n      swap3\n      swap2\n      pop\n      pop\n      jump\t// out\n        /* \"#utility.yul\":6888:6996   */\n    tag_137:\n        /* \"#utility.yul\":6965:6989   */\n      tag_240\n        /* \"#utility.yul\":6983:6988   */\n      dup2\n        /* \"#utility.yul\":6965:6989   */\n      tag_114\n      jump\t// in\n    tag_240:\n        /* \"#utility.yul\":6960:6963   */\n      dup3\n        /* \"#utility.yul\":6953:6990   */\n      mstore\n        /* \"#utility.yul\":6888:6996   */\n      pop\n      pop\n      jump\t// out\n        /* \"#utility.yul\":7064:7693   */\n    tag_138:\n        /* \"#utility.yul\":7183:7186   */\n      0x00\n        /* \"#utility.yul\":7219:7223   */\n      0x40\n        /* \"#utility.yul\":7214:7217   */\n      dup4\n        /* \"#utility.yul\":7210:7224   */\n      add\n        /* \"#utility.yul\":7315:7319   */\n      0x00\n        /* \"#utility.yul\":7308:7313   */\n      dup4\n        /* \"#utility.yul\":7304:7320   */\n      add\n        /* \"#utility.yul\":7298:7321   */\n      mload\n        /* \"#utility.yul\":7368:7371   */\n      dup5\n        /* \"#utility.yul\":7362:7366   */\n      dup3\n        /* \"#utility.yul\":7358:7372   */\n      sub\n        /* \"#utility.yul\":7351:7355   */\n      0x00\n        /* \"#utility.yul\":7346:7349   */\n      dup7\n        /* \"#utility.yul\":7342:7356   */\n      add\n        /* \"#utility.yul\":7335:7373   */\n      mstore\n        /* \"#utility.yul\":7394:7467   */\n      tag_242\n        /* \"#utility.yul\":7462:7466   */\n      dup3\n        /* \"#utility.yul\":7448:7460   */\n      dup3\n        /* \"#utility.yul\":7394:7467   */\n      tag_136\n      jump\t// in\n    tag_242:\n        /* \"#utility.yul\":7386:7467   */\n      swap2\n      pop\n        /* \"#utility.yul\":7234:7478   */\n      pop\n        /* \"#utility.yul\":7574:7578   */\n      0x20\n        /* \"#utility.yul\":7567:7572   */\n      dup4\n        /* \"#utility.yul\":7563:7579   */\n      add\n        /* \"#utility.yul\":7557:7580   */\n      mload\n        /* \"#utility.yul\":7593:7656   */\n      tag_243\n        /* \"#utility.yul\":7650:7654   */\n      0x20\n        /* \"#utility.yul\":7645:7648   */\n      dup7\n        /* \"#utility.yul\":7641:7655   */\n      add\n        /* \"#utility.yul\":7627:7639   */\n      dup3\n        /* \"#utility.yul\":7593:7656   */\n      tag_137\n      jump\t// in\n    tag_243:\n        /* \"#utility.yul\":7488:7666   */\n      pop\n        /* \"#utility.yul\":7683:7687   */\n      dup1\n        /* \"#utility.yul\":7676:7687   */\n      swap2\n      pop\n        /* \"#utility.yul\":7188:7693   */\n      pop\n        /* \"#utility.yul\":7064:7693   */\n      swap3\n      swap2\n      pop\n      pop\n      jump\t// out\n        /* \"#utility.yul\":7699:8072   */\n    tag_44:\n        /* \"#utility.yul\":7842:7846   */\n      0x00\n        /* \"#utility.yul\":7880:7882   */\n      0x20\n        /* \"#utility.yul\":7869:7878   */\n      dup3\n        /* \"#utility.yul\":7865:7883   */\n      add\n        /* \"#utility.yul\":7857:7883   */\n      swap1\n      pop\n        /* \"#utility.yul\":7929:7938   */\n      dup2\n        /* \"#utility.yul\":7923:7927   */\n      dup2\n        /* \"#utility.yul\":7919:7939   */\n      sub\n        /* \"#utility.yul\":7915:7916   */\n      0x00\n        /* \"#utility.yul\":7904:7913   */\n      dup4\n        /* \"#utility.yul\":7900:7917   */\n      add\n        /* \"#utility.yul\":7893:7940   */\n      mstore\n        /* \"#utility.yul\":7957:8065   */\n      tag_245\n        /* \"#utility.yul\":8060:8064   */\n      dup2\n        /* \"#utility.yul\":8051:8057   */\n      dup5\n        /* \"#utility.yul\":7957:8065   */\n      tag_138\n      jump\t// in\n    tag_245:\n        /* \"#utility.yul\":7949:8065   */\n      swap1\n      pop\n        /* \"#utility.yul\":7699:8072   */\n      swap3\n      swap2\n      pop\n      pop\n      jump\t// out\n        /* \"#utility.yul\":8078:8200   */\n    tag_139:\n        /* \"#utility.yul\":8151:8175   */\n      tag_247\n        /* \"#utility.yul\":8169:8174   */\n      dup2\n        /* \"#utility.yul\":8151:8175   */\n      tag_133\n      jump\t// in\n    tag_247:\n        /* \"#utility.yul\":8144:8149   */\n      dup2\n        /* \"#utility.yul\":8141:8176   */\n      eq\n        /* \"#utility.yul\":8131:8194   */\n      tag_248\n      jumpi\n        /* \"#utility.yul\":8190:8191   */\n      0x00\n        /* \"#utility.yul\":8187:8188   */\n      dup1\n        /* \"#utility.yul\":8180:8192   */\n      revert\n        /* \"#utility.yul\":8131:8194   */\n    tag_248:\n        /* \"#utility.yul\":8078:8200   */\n      pop\n      jump\t// out\n        /* \"#utility.yul\":8206:8345   */\n    tag_140:\n        /* \"#utility.yul\":8252:8257   */\n      0x00\n        /* \"#utility.yul\":8290:8296   */\n      dup2\n        /* \"#utility.yul\":8277:8297   */\n      calldataload\n        /* \"#utility.yul\":8268:8297   */\n      swap1\n      pop\n        /* \"#utility.yul\":8306:8339   */\n      tag_250\n        /* \"#utility.yul\":8333:8338   */\n      dup2\n        /* \"#utility.yul\":8306:8339   */\n      tag_139\n      jump\t// in\n    tag_250:\n        /* \"#utility.yul\":8206:8345   */\n      swap3\n      swap2\n      pop\n      pop\n      jump\t// out\n        /* \"#utility.yul\":8351:8680   */\n    tag_47:\n        /* \"#utility.yul\":8410:8416   */\n      0x00\n        /* \"#utility.yul\":8459:8461   */\n      0x20\n        /* \"#utility.yul\":8447:8456   */\n      dup3\n        /* \"#utility.yul\":8438:8445   */\n      dup5\n        /* \"#utility.yul\":8434:8457   */\n      sub\n        /* \"#utility.yul\":8430:8462   */\n      slt\n        /* \"#utility.yul\":8427:8546   */\n      iszero\n      tag_252\n      jumpi\n        /* \"#utility.yul\":8465:8544   */\n      tag_253\n      tag_112\n      jump\t// in\n    tag_253:\n        /* \"#utility.yul\":8427:8546   */\n    tag_252:\n        /* \"#utility.yul\":8585:8586   */\n      0x00\n        /* \"#utility.yul\":8610:8663   */\n      tag_254\n        /* \"#utility.yul\":8655:8662   */\n      dup5\n        /* \"#utility.yul\":8646:8652   */\n      dup3\n        /* \"#utility.yul\":8635:8644   */\n      dup6\n        /* \"#utility.yul\":8631:8653   */\n      add\n        /* \"#utility.yul\":8610:8663   */\n      tag_140\n      jump\t// in\n    tag_254:\n        /* \"#utility.yul\":8600:8663   */\n      swap2\n      pop\n        /* \"#utility.yul\":8556:8673   */\n      pop\n        /* \"#utility.yul\":8351:8680   */\n      swap3\n      swap2\n      pop\n      pop\n      jump\t// out\n        /* \"#utility.yul\":8686:8776   */\n    tag_141:\n        /* \"#utility.yul\":8720:8727   */\n      0x00\n        /* \"#utility.yul\":8763:8768   */\n      dup2\n        /* \"#utility.yul\":8756:8769   */\n      iszero\n        /* \"#utility.yul\":8749:8770   */\n      iszero\n        /* \"#utility.yul\":8738:8770   */\n      swap1\n      pop\n        /* \"#utility.yul\":8686:8776   */\n      swap2\n      swap1\n      pop\n      jump\t// out\n        /* \"#utility.yul\":8782:8891   */\n    tag_142:\n        /* \"#utility.yul\":8863:8884   */\n      tag_257\n        /* \"#utility.yul\":8878:8883   */\n      dup2\n        /* \"#utility.yul\":8863:8884   */\n      tag_141\n      jump\t// in\n    tag_257:\n        /* \"#utility.yul\":8858:8861   */\n      dup3\n        /* \"#utility.yul\":8851:8885   */\n      mstore\n        /* \"#utility.yul\":8782:8891   */\n      pop\n      pop\n      jump\t// out\n        /* \"#utility.yul\":8897:9517   */\n    tag_50:\n        /* \"#utility.yul\":9082:9086   */\n      0x00\n        /* \"#utility.yul\":9120:9123   */\n      0x80\n        /* \"#utility.yul\":9109:9118   */\n      dup3\n        /* \"#utility.yul\":9105:9124   */\n      add\n        /* \"#utility.yul\":9097:9124   */\n      swap1\n      pop\n        /* \"#utility.yul\":9170:9179   */\n      dup2\n        /* \"#utility.yul\":9164:9168   */\n      dup2\n        /* \"#utility.yul\":9160:9180   */\n      sub\n        /* \"#utility.yul\":9156:9157   */\n      0x00\n        /* \"#utility.yul\":9145:9154   */\n      dup4\n        /* \"#utility.yul\":9141:9158   */\n      add\n        /* \"#utility.yul\":9134:9181   */\n      mstore\n        /* \"#utility.yul\":9198:9276   */\n      tag_259\n        /* \"#utility.yul\":9271:9275   */\n      dup2\n        /* \"#utility.yul\":9262:9268   */\n      dup8\n        /* \"#utility.yul\":9198:9276   */\n      tag_122\n      jump\t// in\n    tag_259:\n        /* \"#utility.yul\":9190:9276   */\n      swap1\n      pop\n        /* \"#utility.yul\":9286:9358   */\n      tag_260\n        /* \"#utility.yul\":9354:9356   */\n      0x20\n        /* \"#utility.yul\":9343:9352   */\n      dup4\n        /* \"#utility.yul\":9339:9357   */\n      add\n        /* \"#utility.yul\":9330:9336   */\n      dup7\n        /* \"#utility.yul\":9286:9358   */\n      tag_117\n      jump\t// in\n    tag_260:\n        /* \"#utility.yul\":9368:9434   */\n      tag_261\n        /* \"#utility.yul\":9430:9432   */\n      0x40\n        /* \"#utility.yul\":9419:9428   */\n      dup4\n        /* \"#utility.yul\":9415:9433   */\n      add\n        /* \"#utility.yul\":9406:9412   */\n      dup6\n        /* \"#utility.yul\":9368:9434   */\n      tag_142\n      jump\t// in\n    tag_261:\n        /* \"#utility.yul\":9444:9510   */\n      tag_262\n        /* \"#utility.yul\":9506:9508   */\n      0x60\n        /* \"#utility.yul\":9495:9504   */\n      dup4\n        /* \"#utility.yul\":9491:9509   */\n      add\n        /* \"#utility.yul\":9482:9488   */\n      dup5\n        /* \"#utility.yul\":9444:9510   */\n      tag_142\n      jump\t// in\n    tag_262:\n        /* \"#utility.yul\":8897:9517   */\n      swap6\n      swap5\n      pop\n      pop\n      pop\n      pop\n      pop\n      jump\t// out\n        /* \"#utility.yul\":9523:9703   */\n    tag_65:\n        /* \"#utility.yul\":9571:9648   */\n      0x4e487b7100000000000000000000000000000000000000000000000000000000\n        /* \"#utility.yul\":9568:9569   */\n      0x00\n        /* \"#utility.yul\":9561:9649   */\n      mstore\n        /* \"#utility.yul\":9668:9672   */\n      0x32\n        /* \"#utility.yul\":9665:9666   */\n      0x04\n        /* \"#utility.yul\":9658:9673   */\n      mstore\n        /* \"#utility.yul\":9692:9696   */\n      0x24\n        /* \"#utility.yul\":9689:9690   */\n      0x00\n        /* \"#utility.yul\":9682:9697   */\n      revert\n        /* \"#utility.yul\":9709:9889   */\n    tag_143:\n        /* \"#utility.yul\":9757:9834   */\n      0x4e487b7100000000000000000000000000000000000000000000000000000000\n        /* \"#utility.yul\":9754:9755   */\n      0x00\n        /* \"#utility.yul\":9747:9835   */\n      mstore\n        /* \"#utility.yul\":9854:9858   */\n      0x11\n        /* \"#utility.yul\":9851:9852   */\n      0x04\n        /* \"#utility.yul\":9844:9859   */\n      mstore\n        /* \"#utility.yul\":9878:9882   */\n      0x24\n        /* \"#utility.yul\":9875:9876   */\n      0x00\n        /* \"#utility.yul\":9868:9883   */\n      revert\n        /* \"#utility.yul\":9895:10128   */\n    tag_68:\n        /* \"#utility.yul\":9934:9937   */\n      0x00\n        /* \"#utility.yul\":9957:9981   */\n      tag_266\n        /* \"#utility.yul\":9975:9980   */\n      dup3\n        /* \"#utility.yul\":9957:9981   */\n      tag_114\n      jump\t// in\n    tag_266:\n        /* \"#utility.yul\":9948:9981   */\n      swap2\n      pop\n        /* \"#utility.yul\":10003:10069   */\n      0xffffffffffffffffffffffffffffffffffffffffffffffffffffffffffffffff\n        /* \"#utility.yul\":9996:10001   */\n      dup3\n        /* \"#utility.yul\":9993:10070   */\n      sub\n        /* \"#utility.yul\":9990:10093   */\n      tag_267\n      jumpi\n        /* \"#utility.yul\":10073:10091   */\n      tag_268\n      tag_143\n      jump\t// in\n    tag_268:\n        /* \"#utility.yul\":9990:10093   */\n    tag_267:\n        /* \"#utility.yul\":10120:10121   */\n      0x01\n        /* \"#utility.yul\":10113:10118   */\n      dup3\n        /* \"#utility.yul\":10109:10122   */\n      add\n        /* \"#utility.yul\":10102:10122   */\n      swap1\n      pop\n        /* \"#utility.yul\":9895:10128   */\n      swap2\n      swap1\n      pop\n      jump\t// out\n        /* \"#utility.yul\":10134:10314   */\n    tag_144:\n        /* \"#utility.yul\":10182:10259   */\n      0x4e487b7100000000000000000000000000000000000000000000000000000000\n        /* \"#utility.yul\":10179:10180   */\n      0x00\n        /* \"#utility.yul\":10172:10260   */\n      mstore\n        /* \"#utility.yul\":10279:10283   */\n      0x22\n        /* \"#utility.yul\":10276:10277   */\n      0x04\n        /* \"#utility.yul\":10269:10284   */\n      mstore\n        /* \"#utility.yul\":10303:10307   */\n      0x24\n        /* \"#utility.yul\":10300:10301   */\n      0x00\n        /* \"#utility.yul\":10293:10308   */\n      revert\n        /* \"#utility.yul\":10320:10640   */\n    tag_73:\n        /* \"#utility.yul\":10364:10370   */\n      0x00\n        /* \"#utility.yul\":10401:10402   */\n      0x02\n        /* \"#utility.yul\":10395:10399   */\n      dup3\n        /* \"#utility.yul\":10391:10403   */\n      div\n        /* \"#utility.yul\":10381:10403   */\n      swap1\n      pop\n        /* \"#utility.yul\":10448:10449   */\n      0x01\n        /* \"#utility.yul\":10442:10446   */\n      dup3\n        /* \"#utility.yul\":10438:10450   */\n      and\n        /* \"#utility.yul\":10469:10487   */\n      dup1\n        /* \"#utility.yul\":10459:10540   */\n      tag_271\n      jumpi\n        /* \"#utility.yul\":10525:10529   */\n      0x7f\n        /* \"#utility.yul\":10517:10523   */\n      dup3\n        /* \"#utility.yul\":10513:10530   */\n      and\n        /* \"#utility.yul\":10503:10530   */\n      swap2\n      pop\n        /* \"#utility.yul\":10459:10540   */\n    tag_271:\n        /* \"#utility.yul\":10587:10589   */\n      0x20\n        /* \"#utility.yul\":10579:10585   */\n      dup3\n        /* \"#utility.yul\":10576:10590   */\n      lt\n        /* \"#utility.yul\":10556:10574   */\n      dup2\n        /* \"#utility.yul\":10553:10591   */\n      sub\n        /* \"#utility.yul\":10550:10634   */\n      tag_272\n      jumpi\n        /* \"#utility.yul\":10606:10624   */\n      tag_273\n      tag_144\n      jump\t// in\n    tag_273:\n        /* \"#utility.yul\":10550:10634   */\n    tag_272:\n        /* \"#utility.yul\":10371:10640   */\n      pop\n        /* \"#utility.yul\":10320:10640   */\n      swap2\n      swap1\n      pop\n      jump\t// out\n        /* \"#utility.yul\":10646:10787   */\n    tag_145:\n        /* \"#utility.yul\":10695:10699   */\n      0x00\n        /* \"#utility.yul\":10718:10721   */\n      dup2\n        /* \"#utility.yul\":10710:10721   */\n      swap1\n      pop\n        /* \"#utility.yul\":10741:10744   */\n      dup2\n        /* \"#utility.yul\":10738:10739   */\n      0x00\n        /* \"#utility.yul\":10731:10745   */\n      mstore\n        /* \"#utility.yul\":10775:10779   */\n      0x20\n        /* \"#utility.yul\":10772:10773   */\n      0x00\n        /* \"#utility.yul\":10762:10780   */\n      keccak256\n        /* \"#utility.yul\":10754:10780   */\n      swap1\n      pop\n        /* \"#utility.yul\":10646:10787   */\n      swap2\n      swap1\n      pop\n      jump\t// out\n        /* \"#utility.yul\":10793:10886   */\n    tag_146:\n        /* \"#utility.yul\":10830:10836   */\n      0x00\n        /* \"#utility.yul\":10877:10879   */\n      0x20\n        /* \"#utility.yul\":10872:10874   */\n      0x1f\n        /* \"#utility.yul\":10865:10870   */\n      dup4\n        /* \"#utility.yul\":10861:10875   */\n      add\n        /* \"#utility.yul\":10857:10880   */\n      div\n        /* \"#utility.yul\":10847:10880   */\n      swap1\n      pop\n        /* \"#utility.yul\":10793:10886   */\n      swap2\n      swap1\n      pop\n      jump\t// out\n        /* \"#utility.yul\":10892:10999   */\n    tag_147:\n        /* \"#utility.yul\":10936:10944   */\n      0x00\n        /* \"#utility.yul\":10986:10991   */\n      dup3\n        /* \"#utility.yul\":10980:10984   */\n      dup3\n        /* \"#utility.yul\":10976:10992   */\n      shl\n        /* \"#utility.yul\":10955:10992   */\n      swap1\n      pop\n        /* \"#utility.yul\":10892:10999   */\n      swap3\n      swap2\n      pop\n      pop\n      jump\t// out\n        /* \"#utility.yul\":11005:11398   */\n    tag_148:\n        /* \"#utility.yul\":11074:11080   */\n      0x00\n        /* \"#utility.yul\":11124:11125   */\n      0x08\n        /* \"#utility.yul\":11112:11122   */\n      dup4\n        /* \"#utility.yul\":11108:11126   */\n      mul\n        /* \"#utility.yul\":11147:11244   */\n      tag_278\n        /* \"#utility.yul\":11177:11243   */\n      0xffffffffffffffffffffffffffffffffffffffffffffffffffffffffffffffff\n        /* \"#utility.yul\":11166:11175   */\n      dup3\n        /* \"#utility.yul\":11147:11244   */\n      tag_147\n      jump\t// in\n    tag_278:\n        /* \"#utility.yul\":11265:11304   */\n      tag_279\n        /* \"#utility.yul\":11295:11303   */\n      dup7\n        /* \"#utility.yul\":11284:11293   */\n      dup4\n        /* \"#utility.yul\":11265:11304   */\n      tag_147\n      jump\t// in\n    tag_279:\n        /* \"#utility.yul\":11253:11304   */\n      swap6\n      pop\n        /* \"#utility.yul\":11337:11341   */\n      dup1\n        /* \"#utility.yul\":11333:11342   */\n      not\n        /* \"#utility.yul\":11326:11331   */\n      dup5\n        /* \"#utility.yul\":11322:11343   */\n      and\n        /* \"#utility.yul\":11313:11343   */\n      swap4\n      pop\n        /* \"#utility.yul\":11386:11390   */\n      dup1\n        /* \"#utility.yul\":11376:11384   */\n      dup7\n        /* \"#utility.yul\":11372:11391   */\n      and\n        /* \"#utility.yul\":11365:11370   */\n      dup5\n        /* \"#utility.yul\":11362:11392   */\n      or\n        /* \"#utility.yul\":11352:11392   */\n      swap3\n      pop\n        /* \"#utility.yul\":11081:11398   */\n      pop\n      pop\n        /* \"#utility.yul\":11005:11398   */\n      swap4\n      swap3\n      pop\n      pop\n      pop\n      jump\t// out\n        /* \"#utility.yul\":11404:11464   */\n    tag_149:\n        /* \"#utility.yul\":11432:11435   */\n      0x00\n        /* \"#utility.yul\":11453:11458   */\n      dup2\n        /* \"#utility.yul\":11446:11458   */\n      swap1\n      pop\n        /* \"#utility.yul\":11404:11464   */\n      swap2\n      swap1\n      pop\n      jump\t// out\n        /* \"#utility.yul\":11470:11612   */\n    tag_150:\n        /* \"#utility.yul\":11520:11529   */\n      0x00\n        /* \"#utility.yul\":11553:11606   */\n      tag_282\n        /* \"#utility.yul\":11571:11605   */\n      tag_283\n        /* \"#utility.yul\":11580:11604   */\n      tag_284\n        /* \"#utility.yul\":11598:11603   */\n      dup5\n        /* \"#utility.yul\":11580:11604   */\n      tag_114\n      jump\t// in\n    tag_284:\n        /* \"#utility.yul\":11571:11605   */\n      tag_149\n      jump\t// in\n    tag_283:\n        /* \"#utility.yul\":11553:11606   */\n      tag_114\n      jump\t// in\n    tag_282:\n        /* \"#utility.yul\":11540:11606   */\n      swap1\n      pop\n        /* \"#utility.yul\":11470:11612   */\n      swap2\n      swap1\n      pop\n      jump\t// out\n        /* \"#utility.yul\":11618:11693   */\n    tag_151:\n        /* \"#utility.yul\":11661:11664   */\n      0x00\n        /* \"#utility.yul\":11682:11687   */\n      dup2\n        /* \"#utility.yul\":11675:11687   */\n      swap1\n      pop\n        /* \"#utility.yul\":11618:11693   */\n      swap2\n      swap1\n      pop\n      jump\t// out\n        /* \"#utility.yul\":11699:11968   */\n    tag_152:\n        /* \"#utility.yul\":11809:11848   */\n      tag_287\n        /* \"#utility.yul\":11840:11847   */\n      dup4\n        /* \"#utility.yul\":11809:11848   */\n      tag_150\n      jump\t// in\n    tag_287:\n        /* \"#utility.yul\":11870:11961   */\n      tag_288\n        /* \"#utility.yul\":11919:11960   */\n      tag_289\n        /* \"#utility.yul\":11943:11959   */\n      dup3\n        /* \"#utility.yul\":11919:11960   */\n      tag_151\n      jump\t// in\n    tag_289:\n        /* \"#utility.yul\":11911:11917   */\n      dup5\n        /* \"#utility.yul\":11904:11908   */\n      dup5\n        /* \"#utility.yul\":11898:11909   */\n      sload\n        /* \"#utility.yul\":11870:11961   */\n      tag_148\n      jump\t// in\n    tag_288:\n        /* \"#utility.yul\":11864:11868   */\n      dup3\n        /* \"#utility.yul\":11857:11962   */\n      sstore\n        /* \"#utility.yul\":11775:11968   */\n      pop\n        /* \"#utility.yul\":11699:11968   */\n      pop\n      pop\n      pop\n      jump\t// out\n        /* \"#utility.yul\":11974:12047   */\n    tag_153:\n        /* \"#utility.yul\":12019:12022   */\n      0x00\n        /* \"#utility.yul\":11974:12047   */\n      swap1\n      jump\t// out\n        /* \"#utility.yul\":12053:12242   */\n    tag_154:\n        /* \"#utility.yul\":12130:12162   */\n      tag_292\n      tag_153\n      jump\t// in\n    tag_292:\n        /* \"#utility.yul\":12171:12236   */\n      tag_293\n        /* \"#utility.yul\":12229:12235   */\n      dup2\n        /* \"#utility.yul\":12221:12227   */\n      dup5\n        /* \"#utility.yul\":12215:12219   */\n      dup5\n        /* \"#utility.yul\":12171:12236   */\n      tag_152\n      jump\t// in\n    tag_293:\n        /* \"#utility.yul\":12106:12242   */\n      pop\n        /* \"#utility.yul\":12053:12242   */\n      pop\n      pop\n      jump\t// out\n        /* \"#utility.yul\":12248:12434   */\n    tag_155:\n        /* \"#utility.yul\":12308:12428   */\n    tag_295:\n        /* \"#utility.yul\":12325:12328   */\n      dup2\n        /* \"#utility.yul\":12318:12323   */\n      dup2\n        /* \"#utility.yul\":12315:12329   */\n      lt\n        /* \"#utility.yul\":12308:12428   */\n      iszero\n      tag_297\n      jumpi\n        /* \"#utility.yul\":12379:12418   */\n      tag_298\n        /* \"#utility.yul\":12416:12417   */\n      0x00\n        /* \"#utility.yul\":12409:12414   */\n      dup3\n        /* \"#utility.yul\":12379:12418   */\n      tag_154\n      jump\t// in\n    tag_298:\n        /* \"#utility.yul\":12352:12353   */\n      0x01\n        /* \"#utility.yul\":12345:12350   */\n      dup2\n        /* \"#utility.yul\":12341:12354   */\n      add\n        /* \"#utility.yul\":12332:12354   */\n      swap1\n      pop\n        /* \"#utility.yul\":12308:12428   */\n      jump(tag_295)\n    tag_297:\n        /* \"#utility.yul\":12248:12434   */\n      pop\n      pop\n      jump\t// out\n        /* \"#utility.yul\":12440:12983   */\n    tag_156:\n        /* \"#utility.yul\":12541:12543   */\n      0x1f\n        /* \"#utility.yul\":12536:12539   */\n      dup3\n        /* \"#utility.yul\":12533:12544   */\n      gt\n        /* \"#utility.yul\":12530:12976   */\n      iszero\n      tag_300\n      jumpi\n        /* \"#utility.yul\":12575:12613   */\n      tag_301\n        /* \"#utility.yul\":12607:12612   */\n      dup2\n        /* \"#utility.yul\":12575:12613   */\n      tag_145\n      jump\t// in\n    tag_301:\n        /* \"#utility.yul\":12659:12688   */\n      tag_302\n        /* \"#utility.yul\":12677:12687   */\n      dup5\n        /* \"#utility.yul\":12659:12688   */\n      tag_146\n      jump\t// in\n    tag_302:\n        /* \"#utility.yul\":12649:12657   */\n      dup2\n        /* \"#utility.yul\":12645:12689   */\n      add\n        /* \"#utility.yul\":12842:12844   */\n      0x20\n        /* \"#utility.yul\":12830:12840   */\n      dup6\n        /* \"#utility.yul\":12827:12845   */\n      lt\n        /* \"#utility.yul\":12824:12873   */\n      iszero\n      tag_303\n      jumpi\n        /* \"#utility.yul\":12863:12871   */\n      dup2\n        /* \"#utility.yul\":12848:12871   */\n      swap1\n      pop\n        /* \"#utility.yul\":12824:12873   */\n    tag_303:\n        /* \"#utility.yul\":12886:12966   */\n      tag_304\n        /* \"#utility.yul\":12942:12964   */\n      tag_305\n        /* \"#utility.yul\":12960:12963   */\n      dup6\n        /* \"#utility.yul\":12942:12964   */\n      tag_146\n      jump\t// in\n    tag_305:\n        /* \"#utility.yul\":12932:12940   */\n      dup4\n        /* \"#utility.yul\":12928:12965   */\n      add\n        /* \"#utility.yul\":12915:12926   */\n      dup3\n        /* \"#utility.yul\":12886:12966   */\n      tag_155\n      jump\t// in\n    tag_304:\n        /* \"#utility.yul\":12545:12976   */\n      pop\n      pop\n        /* \"#utility.yul\":12530:12976   */\n    tag_300:\n        /* \"#utility.yul\":12440:12983   */\n      pop\n      pop\n      pop\n      jump\t// out\n        /* \"#utility.yul\":12989:13106   */\n    tag_157:\n        /* \"#utility.yul\":13043:13051   */\n      0x00\n        /* \"#utility.yul\":13093:13098   */\n      dup3\n        /* \"#utility.yul\":13087:13091   */\n      dup3\n        /* \"#utility.yul\":13083:13099   */\n      shr\n        /* \"#utility.yul\":13062:13099   */\n      swap1\n      pop\n        /* \"#utility.yul\":12989:13106   */\n      swap3\n      swap2\n      pop\n      pop\n      jump\t// out\n        /* \"#utility.yul\":13112:13281   */\n    tag_158:\n        /* \"#utility.yul\":13156:13162   */\n      0x00\n        /* \"#utility.yul\":13189:13240   */\n      tag_308\n        /* \"#utility.yul\":13237:13238   */\n      0x00\n        /* \"#utility.yul\":13233:13239   */\n      not\n        /* \"#utility.yul\":13225:13230   */\n      dup5\n        /* \"#utility.yul\":13222:13223   */\n      0x08\n        /* \"#utility.yul\":13218:13231   */\n      mul\n        /* \"#utility.yul\":13189:13240   */\n      tag_157\n      jump\t// in\n    tag_308:\n        /* \"#utility.yul\":13185:13241   */\n      not\n        /* \"#utility.yul\":13270:13274   */\n      dup1\n        /* \"#utility.yul\":13264:13268   */\n      dup4\n        /* \"#utility.yul\":13260:13275   */\n      and\n        /* \"#utility.yul\":13250:13275   */\n      swap2\n      pop\n        /* \"#utility.yul\":13163:13281   */\n      pop\n        /* \"#utility.yul\":13112:13281   */\n      swap3\n      swap2\n      pop\n      pop\n      jump\t// out\n        /* \"#utility.yul\":13286:13581   */\n    tag_159:\n        /* \"#utility.yul\":13362:13366   */\n      0x00\n        /* \"#utility.yul\":13508:13537   */\n      tag_310\n        /* \"#utility.yul\":13533:13536   */\n      dup4\n        /* \"#utility.yul\":13527:13531   */\n      dup4\n        /* \"#utility.yul\":13508:13537   */\n      tag_158\n      jump\t// in\n    tag_310:\n        /* \"#utility.yul\":13500:13537   */\n      swap2\n      pop\n        /* \"#utility.yul\":13570:13573   */\n      dup3\n        /* \"#utility.yul\":13567:13568   */\n      0x02\n        /* \"#utility.yul\":13563:13574   */\n      mul\n        /* \"#utility.yul\":13557:13561   */\n      dup3\n        /* \"#utility.yul\":13554:13575   */\n      or\n        /* \"#utility.yul\":13546:13575   */\n      swap1\n      pop\n        /* \"#utility.yul\":13286:13581   */\n      swap3\n      swap2\n      pop\n      pop\n      jump\t// out\n        /* \"#utility.yul\":13586:14981   */\n    tag_83:\n        /* \"#utility.yul\":13703:13740   */\n      tag_312\n        /* \"#utility.yul\":13736:13739   */\n      dup3\n        /* \"#utility.yul\":13703:13740   */\n      tag_118\n      jump\t// in\n    tag_312:\n        /* \"#utility.yul\":13805:13823   */\n      0xffffffffffffffff\n        /* \"#utility.yul\":13797:13803   */\n      dup2\n        /* \"#utility.yul\":13794:13824   */\n      gt\n        /* \"#utility.yul\":13791:13847   */\n      iszero\n      tag_313\n      jumpi\n        /* \"#utility.yul\":13827:13845   */\n      tag_314\n      tag_125\n      jump\t// in\n    tag_314:\n        /* \"#utility.yul\":13791:13847   */\n    tag_313:\n        /* \"#utility.yul\":13871:13909   */\n      tag_315\n        /* \"#utility.yul\":13903:13907   */\n      dup3\n        /* \"#utility.yul\":13897:13908   */\n      sload\n        /* \"#utility.yul\":13871:13909   */\n      tag_73\n      jump\t// in\n    tag_315:\n        /* \"#utility.yul\":13956:14023   */\n      tag_316\n        /* \"#utility.yul\":14016:14022   */\n      dup3\n        /* \"#utility.yul\":14008:14014   */\n      dup3\n        /* \"#utility.yul\":14002:14006   */\n      dup6\n        /* \"#utility.yul\":13956:14023   */\n      tag_156\n      jump\t// in\n    tag_316:\n        /* \"#utility.yul\":14050:14051   */\n      0x00\n        /* \"#utility.yul\":14074:14078   */\n      0x20\n        /* \"#utility.yul\":14061:14078   */\n      swap1\n      pop\n        /* \"#utility.yul\":14106:14108   */\n      0x1f\n        /* \"#utility.yul\":14098:14104   */\n      dup4\n        /* \"#utility.yul\":14095:14109   */\n      gt\n        /* \"#utility.yul\":14123:14124   */\n      0x01\n        /* \"#utility.yul\":14118:14736   */\n      dup2\n      eq\n      tag_318\n      jumpi\n        /* \"#utility.yul\":14780:14781   */\n      0x00\n        /* \"#utility.yul\":14797:14803   */\n      dup5\n        /* \"#utility.yul\":14794:14871   */\n      iszero\n      tag_319\n      jumpi\n        /* \"#utility.yul\":14846:14855   */\n      dup3\n        /* \"#utility.yul\":14841:14844   */\n      dup8\n        /* \"#utility.yul\":14837:14856   */\n      add\n        /* \"#utility.yul\":14831:14857   */\n      mload\n        /* \"#utility.yul\":14822:14857   */\n      swap1\n      pop\n        /* \"#utility.yul\":14794:14871   */\n    tag_319:\n        /* \"#utility.yul\":14897:14964   */\n      tag_320\n        /* \"#utility.yul\":14957:14963   */\n      dup6\n        /* \"#utility.yul\":14950:14955   */\n      dup3\n        /* \"#utility.yul\":14897:14964   */\n      tag_159\n      jump\t// in\n    tag_320:\n        /* \"#utility.yul\":14891:14895   */\n      dup7\n        /* \"#utility.yul\":14884:14965   */\n      sstore\n        /* \"#utility.yul\":14753:14975   */\n      pop\n        /* \"#utility.yul\":14088:14975   */\n      jump(tag_317)\n        /* \"#utility.yul\":14118:14736   */\n    tag_318:\n        /* \"#utility.yul\":14170:14174   */\n      0x1f\n        /* \"#utility.yul\":14166:14175   */\n      not\n        /* \"#utility.yul\":14158:14164   */\n      dup5\n        /* \"#utility.yul\":14154:14176   */\n      and\n        /* \"#utility.yul\":14204:14241   */\n      tag_321\n        /* \"#utility.yul\":14236:14240   */\n      dup7\n        /* \"#utility.yul\":14204:14241   */\n      tag_145\n      jump\t// in\n    tag_321:\n        /* \"#utility.yul\":14263:14264   */\n      0x00\n        /* \"#utility.yul\":14277:14485   */\n    tag_322:\n        /* \"#utility.yul\":14291:14298   */\n      dup3\n        /* \"#utility.yul\":14288:14289   */\n      dup2\n        /* \"#utility.yul\":14285:14299   */\n      lt\n        /* \"#utility.yul\":14277:14485   */\n      iszero\n      tag_324\n      jumpi\n        /* \"#utility.yul\":14370:14379   */\n      dup5\n        /* \"#utility.yul\":14365:14368   */\n      dup10\n        /* \"#utility.yul\":14361:14380   */\n      add\n        /* \"#utility.yul\":14355:14381   */\n      mload\n        /* \"#utility.yul\":14347:14353   */\n      dup3\n        /* \"#utility.yul\":14340:14382   */\n      sstore\n        /* \"#utility.yul\":14421:14422   */\n      0x01\n        /* \"#utility.yul\":14413:14419   */\n      dup3\n        /* \"#utility.yul\":14409:14423   */\n      add\n        /* \"#utility.yul\":14399:14423   */\n      swap2\n      pop\n        /* \"#utility.yul\":14468:14470   */\n      0x20\n        /* \"#utility.yul\":14457:14466   */\n      dup6\n        /* \"#utility.yul\":14453:14471   */\n      add\n        /* \"#utility.yul\":14440:14471   */\n      swap5\n      pop\n        /* \"#utility.yul\":14314:14318   */\n      0x20\n        /* \"#utility.yul\":14311:14312   */\n      dup2\n        /* \"#utility.yul\":14307:14319   */\n      add\n        /* \"#utility.yul\":14302:14319   */\n      swap1\n      pop\n        /* \"#utility.yul\":14277:14485   */\n      jump(tag_322)\n    tag_324:\n        /* \"#utility.yul\":14513:14519   */\n      dup7\n        /* \"#utility.yul\":14504:14511   */\n      dup4\n        /* \"#utility.yul\":14501:14520   */\n      lt\n        /* \"#utility.yul\":14498:14677   */\n      iszero\n      tag_325\n      jumpi\n        /* \"#utility.yul\":14571:14580   */\n      dup5\n        /* \"#utility.yul\":14566:14569   */\n      dup10\n        /* \"#utility.yul\":14562:14581   */\n      add\n        /* \"#utility.yul\":14556:14582   */\n      mload\n        /* \"#utility.yul\":14614:14662   */\n      tag_326\n        /* \"#utility.yul\":14656:14660   */\n      0x1f\n        /* \"#utility.yul\":14648:14654   */\n      dup10\n        /* \"#utility.yul\":14644:14661   */\n      and\n        /* \"#utility.yul\":14633:14642   */\n      dup3\n        /* \"#utility.yul\":14614:14662   */\n      tag_158\n      jump\t// in\n    tag_326:\n        /* \"#utility.yul\":14606:14612   */\n      dup4\n        /* \"#utility.yul\":14599:14663   */\n      sstore\n        /* \"#utility.yul\":14521:14677   */\n      pop\n        /* \"#utility.yul\":14498:14677   */\n    tag_325:\n        /* \"#utility.yul\":14723:14724   */\n      0x01\n        /* \"#utility.yul\":14719:14720   */\n      0x02\n        /* \"#utility.yul\":14711:14717   */\n      dup9\n        /* \"#utility.yul\":14707:14721   */\n      mul\n        /* \"#utility.yul\":14703:14725   */\n      add\n        /* \"#utility.yul\":14697:14701   */\n      dup9\n        /* \"#utility.yul\":14690:14726   */\n      sstore\n        /* \"#utility.yul\":14125:14736   */\n      pop\n      pop\n      pop\n        /* \"#utility.yul\":14088:14975   */\n    tag_317:\n      pop\n        /* \"#utility.yul\":13678:14981   */\n      pop\n      pop\n      pop\n        /* \"#utility.yul\":13586:14981   */\n      pop\n      pop\n      jump\t// out\n\n    auxdata: 0xa26469706673582212203fc76ec9ab392a3a9364e1034c961cc228c050c8246e1d8fb221fb3586c0944f64736f6c63430008120033\n}\n",
				"bytecode": {
					"linkReferences": {},
					"object": "608060405234801561001057600080fd5b50611131806100206000396000f3fe608060405234801561001057600080fd5b50600436106100a95760003560e01c80638da5cb5b116100715780638da5cb5b146101535780638e04ac3014610171578063a3ec138d146101a1578063bb9aa28f146101d4578063f544bed8146101f2578063fd47b3681461020e576100a9565b80630121b93f146100ae5780630d15fd77146100ca5780633477ee2e146100e8578063462e91ec1461011957806385e8e7a714610135575b600080fd5b6100c860048036038101906100c391906108ec565b61022a565b005b6100d261038e565b6040516100df9190610928565b60405180910390f35b61010260048036038101906100fd91906108ec565b610394565b6040516101109291906109d3565b60405180910390f35b610133600480360381019061012e9190610b38565b610450565b005b61013d61050e565b60405161014a9190610b81565b60405180910390f35b61015b61059c565b6040516101689190610be4565b60405180910390f35b61018b600480360381019061018691906108ec565b6105c0565b6040516101989190610c95565b60405180910390f35b6101bb60048036038101906101b69190610ce3565b610698565b6040516101cb9493929190610d2b565b60405180910390f35b6101dc61076a565b6040516101e99190610928565b60405180910390f35b61020c60048036038101906102079190610b38565b610777565b005b61022860048036038101906102239190610ce3565b6107d2565b005b600360003373ffffffffffffffffffffffffffffffffffffffff1673ffffffffffffffffffffffffffffffffffffffff16815260200190815260200160002060020160009054906101000a900460ff1661028357600080fd5b600360003373ffffffffffffffffffffffffffffffffffffffff1673ffffffffffffffffffffffffffffffffffffffff16815260200190815260200160002060020160019054906101000a900460ff16156102dd57600080fd5b6001600360003373ffffffffffffffffffffffffffffffffffffffff1673ffffffffffffffffffffffffffffffffffffffff16815260200190815260200160002060020160016101000a81548160ff0219169083151502179055506004818154811061034c5761034b610d77565b5b9060005260206000209060020201600101600081548092919061036e90610dd5565b91905055506002600081548092919061038690610dd5565b919050555050565b60025481565b600481815481106103a457600080fd5b90600052602060002090600202016000915090508060000180546103c790610e4c565b80601f01602080910402602001604051908101604052809291908181526020018280546103f390610e4c565b80156104405780601f1061041557610100808354040283529160200191610440565b820191906000526020600020905b81548152906001019060200180831161042357829003601f168201915b5050505050908060010154905082565b3373ffffffffffffffffffffffffffffffffffffffff1660008054906101000a900473ffffffffffffffffffffffffffffffffffffffff1673ffffffffffffffffffffffffffffffffffffffff16146104a857600080fd5b600460405180604001604052808381526020016000815250908060018154018082558091505060019003906000526020600020906002020160009091909190915060008201518160000190816104fe9190611029565b5060208201518160010155505050565b6001805461051b90610e4c565b80601f016020809104026020016040519081016040528092919081815260200182805461054790610e4c565b80156105945780601f1061056957610100808354040283529160200191610594565b820191906000526020600020905b81548152906001019060200180831161057757829003601f168201915b505050505081565b60008054906101000a900473ffffffffffffffffffffffffffffffffffffffff1681565b6105c8610888565b600482815481106105dc576105db610d77565b5b906000526020600020906002020160405180604001604052908160008201805461060590610e4c565b80601f016020809104026020016040519081016040528092919081815260200182805461063190610e4c565b801561067e5780601f106106535761010080835404028352916020019161067e565b820191906000526020600020905b81548152906001019060200180831161066157829003601f168201915b505050505081526020016001820154815250509050919050565b60036020528060005260406000206000915090508060000180546106bb90610e4c565b80601f01602080910402602001604051908101604052809291908181526020018280546106e790610e4c565b80156107345780601f1061070957610100808354040283529160200191610734565b820191906000526020600020905b81548152906001019060200180831161071757829003601f168201915b5050505050908060010154908060020160009054906101000a900460ff16908060020160019054906101000a900460ff16905084565b6000600480549050905090565b80600190816107869190611029565b50336000806101000a81548173ffffffffffffffffffffffffffffffffffffffff021916908373ffffffffffffffffffffffffffffffffffffffff160217905550600060028190555050565b3373ffffffffffffffffffffffffffffffffffffffff1660008054906101000a900473ffffffffffffffffffffffffffffffffffffffff1673ffffffffffffffffffffffffffffffffffffffff161461082a57600080fd5b6001600360008373ffffffffffffffffffffffffffffffffffffffff1673ffffffffffffffffffffffffffffffffffffffff16815260200190815260200160002060020160006101000a81548160ff02191690831515021790555050565b604051806040016040528060608152602001600081525090565b6000604051905090565b600080fd5b600080fd5b6000819050919050565b6108c9816108b6565b81146108d457600080fd5b50565b6000813590506108e6816108c0565b92915050565b600060208284031215610902576109016108ac565b5b6000610910848285016108d7565b91505092915050565b610922816108b6565b82525050565b600060208201905061093d6000830184610919565b92915050565b600081519050919050565b600082825260208201905092915050565b60005b8381101561097d578082015181840152602081019050610962565b60008484015250505050565b6000601f19601f8301169050919050565b60006109a582610943565b6109af818561094e565b93506109bf81856020860161095f565b6109c881610989565b840191505092915050565b600060408201905081810360008301526109ed818561099a565b90506109fc6020830184610919565b9392505050565b600080fd5b600080fd5b7f4e487b7100000000000000000000000000000000000000000000000000000000600052604160045260246000fd5b610a4582610989565b810181811067ffffffffffffffff82111715610a6457610a63610a0d565b5b80604052505050565b6000610a776108a2565b9050610a838282610a3c565b919050565b600067ffffffffffffffff821115610aa357610aa2610a0d565b5b610aac82610989565b9050602081019050919050565b82818337600083830152505050565b6000610adb610ad684610a88565b610a6d565b905082815260208101848484011115610af757610af6610a08565b5b610b02848285610ab9565b509392505050565b600082601f830112610b1f57610b1e610a03565b5b8135610b2f848260208601610ac8565b91505092915050565b600060208284031215610b4e57610b4d6108ac565b5b600082013567ffffffffffffffff811115610b6c57610b6b6108b1565b5b610b7884828501610b0a565b91505092915050565b60006020820190508181036000830152610b9b818461099a565b905092915050565b600073ffffffffffffffffffffffffffffffffffffffff82169050919050565b6000610bce82610ba3565b9050919050565b610bde81610bc3565b82525050565b6000602082019050610bf96000830184610bd5565b92915050565b600082825260208201905092915050565b6000610c1b82610943565b610c258185610bff565b9350610c3581856020860161095f565b610c3e81610989565b840191505092915050565b610c52816108b6565b82525050565b60006040830160008301518482036000860152610c758282610c10565b9150506020830151610c8a6020860182610c49565b508091505092915050565b60006020820190508181036000830152610caf8184610c58565b905092915050565b610cc081610bc3565b8114610ccb57600080fd5b50565b600081359050610cdd81610cb7565b92915050565b600060208284031215610cf957610cf86108ac565b5b6000610d0784828501610cce565b91505092915050565b60008115159050919050565b610d2581610d10565b82525050565b60006080820190508181036000830152610d45818761099a565b9050610d546020830186610919565b610d616040830185610d1c565b610d6e6060830184610d1c565b95945050505050565b7f4e487b7100000000000000000000000000000000000000000000000000000000600052603260045260246000fd5b7f4e487b7100000000000000000000000000000000000000000000000000000000600052601160045260246000fd5b6000610de0826108b6565b91507fffffffffffffffffffffffffffffffffffffffffffffffffffffffffffffffff8203610e1257610e11610da6565b5b600182019050919050565b7f4e487b7100000000000000000000000000000000000000000000000000000000600052602260045260246000fd5b60006002820490506001821680610e6457607f821691505b602082108103610e7757610e76610e1d565b5b50919050565b60008190508160005260206000209050919050565b60006020601f8301049050919050565b600082821b905092915050565b600060088302610edf7fffffffffffffffffffffffffffffffffffffffffffffffffffffffffffffffff82610ea2565b610ee98683610ea2565b95508019841693508086168417925050509392505050565b6000819050919050565b6000610f26610f21610f1c846108b6565b610f01565b6108b6565b9050919050565b6000819050919050565b610f4083610f0b565b610f54610f4c82610f2d565b848454610eaf565b825550505050565b600090565b610f69610f5c565b610f74818484610f37565b505050565b5b81811015610f9857610f8d600082610f61565b600181019050610f7a565b5050565b601f821115610fdd57610fae81610e7d565b610fb784610e92565b81016020851015610fc6578190505b610fda610fd285610e92565b830182610f79565b50505b505050565b600082821c905092915050565b600061100060001984600802610fe2565b1980831691505092915050565b60006110198383610fef565b9150826002028217905092915050565b61103282610943565b67ffffffffffffffff81111561104b5761104a610a0d565b5b6110558254610e4c565b611060828285610f9c565b600060209050601f8311600181146110935760008415611081578287015190505b61108b858261100d565b8655506110f3565b601f1984166110a186610e7d565b60005b828110156110c9578489015182556001820191506020850194506020810190506110a4565b868310156110e657848901516110e2601f891682610fef565b8355505b6001600288020188555050505b50505050505056fea26469706673582212203fc76ec9ab392a3a9364e1034c961cc228c050c8246e1d8fb221fb3586c0944f64736f6c63430008120033",
					"opcodes": "PUSH1 0x80 PUSH1 0x40 MSTORE CALLVALUE DUP1 ISZERO PUSH2 0x10 JUMPI PUSH1 0x0 DUP1 REVERT JUMPDEST POP PUSH2 0x1131 DUP1 PUSH2 0x20 PUSH1 0x0 CODECOPY PUSH1 0x0 RETURN INVALID PUSH1 0x80 PUSH1 0x40 MSTORE CALLVALUE DUP1 ISZERO PUSH2 0x10 JUMPI PUSH1 0x0 DUP1 REVERT JUMPDEST POP PUSH1 0x4 CALLDATASIZE LT PUSH2 0xA9 JUMPI PUSH1 0x0 CALLDATALOAD PUSH1 0xE0 SHR DUP1 PUSH4 0x8DA5CB5B GT PUSH2 0x71 JUMPI DUP1 PUSH4 0x8DA5CB5B EQ PUSH2 0x153 JUMPI DUP1 PUSH4 0x8E04AC30 EQ PUSH2 0x171 JUMPI DUP1 PUSH4 0xA3EC138D EQ PUSH2 0x1A1 JUMPI DUP1 PUSH4 0xBB9AA28F EQ PUSH2 0x1D4 JUMPI DUP1 PUSH4 0xF544BED8 EQ PUSH2 0x1F2 JUMPI DUP1 PUSH4 0xFD47B368 EQ PUSH2 0x20E JUMPI PUSH2 0xA9 JUMP JUMPDEST DUP1 PUSH4 0x121B93F EQ PUSH2 0xAE JUMPI DUP1 PUSH4 0xD15FD77 EQ PUSH2 0xCA JUMPI DUP1 PUSH4 0x3477EE2E EQ PUSH2 0xE8 JUMPI DUP1 PUSH4 0x462E91EC EQ PUSH2 0x119 JUMPI DUP1 PUSH4 0x85E8E7A7 EQ PUSH2 0x135 JUMPI JUMPDEST PUSH1 0x0 DUP1 REVERT JUMPDEST PUSH2 0xC8 PUSH1 0x4 DUP1 CALLDATASIZE SUB DUP2 ADD SWAP1 PUSH2 0xC3 SWAP2 SWAP1 PUSH2 0x8EC JUMP JUMPDEST PUSH2 0x22A JUMP JUMPDEST STOP JUMPDEST PUSH2 0xD2 PUSH2 0x38E JUMP JUMPDEST PUSH1 0x40 MLOAD PUSH2 0xDF SWAP2 SWAP1 PUSH2 0x928 JUMP JUMPDEST PUSH1 0x40 MLOAD DUP1 SWAP2 SUB SWAP1 RETURN JUMPDEST PUSH2 0x102 PUSH1 0x4 DUP1 CALLDATASIZE SUB DUP2 ADD SWAP1 PUSH2 0xFD SWAP2 SWAP1 PUSH2 0x8EC JUMP JUMPDEST PUSH2 0x394 JUMP JUMPDEST PUSH1 0x40 MLOAD PUSH2 0x110 SWAP3 SWAP2 SWAP1 PUSH2 0x9D3 JUMP JUMPDEST PUSH1 0x40 MLOAD DUP1 SWAP2 SUB SWAP1 RETURN JUMPDEST PUSH2 0x133 PUSH1 0x4 DUP1 CALLDATASIZE SUB DUP2 ADD SWAP1 PUSH2 0x12E SWAP2 SWAP1 PUSH2 0xB38 JUMP JUMPDEST PUSH2 0x450 JUMP JUMPDEST STOP JUMPDEST PUSH2 0x13D PUSH2 0x50E JUMP JUMPDEST PUSH1 0x40 MLOAD PUSH2 0x14A SWAP2 SWAP1 PUSH2 0xB81 JUMP JUMPDEST PUSH1 0x40 MLOAD DUP1 SWAP2 SUB SWAP1 RETURN JUMPDEST PUSH2 0x15B PUSH2 0x59C JUMP JUMPDEST PUSH1 0x40 MLOAD PUSH2 0x168 SWAP2 SWAP1 PUSH2 0xBE4 JUMP JUMPDEST PUSH1 0x40 MLOAD DUP1 SWAP2 SUB SWAP1 RETURN JUMPDEST PUSH2 0x18B PUSH1 0x4 DUP1 CALLDATASIZE SUB DUP2 ADD SWAP1 PUSH2 0x186 SWAP2 SWAP1 PUSH2 0x8EC JUMP JUMPDEST PUSH2 0x5C0 JUMP JUMPDEST PUSH1 0x40 MLOAD PUSH2 0x198 SWAP2 SWAP1 PUSH2 0xC95 JUMP JUMPDEST PUSH1 0x40 MLOAD DUP1 SWAP2 SUB SWAP1 RETURN JUMPDEST PUSH2 0x1BB PUSH1 0x4 DUP1 CALLDATASIZE SUB DUP2 ADD SWAP1 PUSH2 0x1B6 SWAP2 SWAP1 PUSH2 0xCE3 JUMP JUMPDEST PUSH2 0x698 JUMP JUMPDEST PUSH1 0x40 MLOAD PUSH2 0x1CB SWAP5 SWAP4 SWAP3 SWAP2 SWAP1 PUSH2 0xD2B JUMP JUMPDEST PUSH1 0x40 MLOAD DUP1 SWAP2 SUB SWAP1 RETURN JUMPDEST PUSH2 0x1DC PUSH2 0x76A JUMP JUMPDEST PUSH1 0x40 MLOAD PUSH2 0x1E9 SWAP2 SWAP1 PUSH2 0x928 JUMP JUMPDEST PUSH1 0x40 MLOAD DUP1 SWAP2 SUB SWAP1 RETURN JUMPDEST PUSH2 0x20C PUSH1 0x4 DUP1 CALLDATASIZE SUB DUP2 ADD SWAP1 PUSH2 0x207 SWAP2 SWAP1 PUSH2 0xB38 JUMP JUMPDEST PUSH2 0x777 JUMP JUMPDEST STOP JUMPDEST PUSH2 0x228 PUSH1 0x4 DUP1 CALLDATASIZE SUB DUP2 ADD SWAP1 PUSH2 0x223 SWAP2 SWAP1 PUSH2 0xCE3 JUMP JUMPDEST PUSH2 0x7D2 JUMP JUMPDEST STOP JUMPDEST PUSH1 0x3 PUSH1 0x0 CALLER PUSH20 0xFFFFFFFFFFFFFFFFFFFFFFFFFFFFFFFFFFFFFFFF AND PUSH20 0xFFFFFFFFFFFFFFFFFFFFFFFFFFFFFFFFFFFFFFFF AND DUP2 MSTORE PUSH1 0x20 ADD SWAP1 DUP2 MSTORE PUSH1 0x20 ADD PUSH1 0x0 KECCAK256 PUSH1 0x2 ADD PUSH1 0x0 SWAP1 SLOAD SWAP1 PUSH2 0x100 EXP SWAP1 DIV PUSH1 0xFF AND PUSH2 0x283 JUMPI PUSH1 0x0 DUP1 REVERT JUMPDEST PUSH1 0x3 PUSH1 0x0 CALLER PUSH20 0xFFFFFFFFFFFFFFFFFFFFFFFFFFFFFFFFFFFFFFFF AND PUSH20 0xFFFFFFFFFFFFFFFFFFFFFFFFFFFFFFFFFFFFFFFF AND DUP2 MSTORE PUSH1 0x20 ADD SWAP1 DUP2 MSTORE PUSH1 0x20 ADD PUSH1 0x0 KECCAK256 PUSH1 0x2 ADD PUSH1 0x1 SWAP1 SLOAD SWAP1 PUSH2 0x100 EXP SWAP1 DIV PUSH1 0xFF AND ISZERO PUSH2 0x2DD JUMPI PUSH1 0x0 DUP1 REVERT JUMPDEST PUSH1 0x1 PUSH1 0x3 PUSH1 0x0 CALLER PUSH20 0xFFFFFFFFFFFFFFFFFFFFFFFFFFFFFFFFFFFFFFFF AND PUSH20 0xFFFFFFFFFFFFFFFFFFFFFFFFFFFFFFFFFFFFFFFF AND DUP2 MSTORE PUSH1 0x20 ADD SWAP1 DUP2 MSTORE PUSH1 0x20 ADD PUSH1 0x0 KECCAK256 PUSH1 0x2 ADD PUSH1 0x1 PUSH2 0x100 EXP DUP2 SLOAD DUP2 PUSH1 0xFF MUL NOT AND SWAP1 DUP4 ISZERO ISZERO MUL OR SWAP1 SSTORE POP PUSH1 0x4 DUP2 DUP2 SLOAD DUP2 LT PUSH2 0x34C JUMPI PUSH2 0x34B PUSH2 0xD77 JUMP JUMPDEST JUMPDEST SWAP1 PUSH1 0x0 MSTORE PUSH1 0x20 PUSH1 0x0 KECCAK256 SWAP1 PUSH1 0x2 MUL ADD PUSH1 0x1 ADD PUSH1 0x0 DUP2 SLOAD DUP1 SWAP3 SWAP2 SWAP1 PUSH2 0x36E SWAP1 PUSH2 0xDD5 JUMP JUMPDEST SWAP2 SWAP1 POP SSTORE POP PUSH1 0x2 PUSH1 0x0 DUP2 SLOAD DUP1 SWAP3 SWAP2 SWAP1 PUSH2 0x386 SWAP1 PUSH2 0xDD5 JUMP JUMPDEST SWAP2 SWAP1 POP SSTORE POP POP JUMP JUMPDEST PUSH1 0x2 SLOAD DUP2 JUMP JUMPDEST PUSH1 0x4 DUP2 DUP2 SLOAD DUP2 LT PUSH2 0x3A4 JUMPI PUSH1 0x0 DUP1 REVERT JUMPDEST SWAP1 PUSH1 0x0 MSTORE PUSH1 0x20 PUSH1 0x0 KECCAK256 SWAP1 PUSH1 0x2 MUL ADD PUSH1 0x0 SWAP2 POP SWAP1 POP DUP1 PUSH1 0x0 ADD DUP1 SLOAD PUSH2 0x3C7 SWAP1 PUSH2 0xE4C JUMP JUMPDEST DUP1 PUSH1 0x1F ADD PUSH1 0x20 DUP1 SWAP2 DIV MUL PUSH1 0x20 ADD PUSH1 0x40 MLOAD SWAP1 DUP2 ADD PUSH1 0x40 MSTORE DUP1 SWAP3 SWAP2 SWAP1 DUP2 DUP2 MSTORE PUSH1 0x20 ADD DUP3 DUP1 SLOAD PUSH2 0x3F3 SWAP1 PUSH2 0xE4C JUMP JUMPDEST DUP1 ISZERO PUSH2 0x440 JUMPI DUP1 PUSH1 0x1F LT PUSH2 0x415 JUMPI PUSH2 0x100 DUP1 DUP4 SLOAD DIV MUL DUP4 MSTORE SWAP2 PUSH1 0x20 ADD SWAP2 PUSH2 0x440 JUMP JUMPDEST DUP3 ADD SWAP2 SWAP1 PUSH1 0x0 MSTORE PUSH1 0x20 PUSH1 0x0 KECCAK256 SWAP1 JUMPDEST DUP2 SLOAD DUP2 MSTORE SWAP1 PUSH1 0x1 ADD SWAP1 PUSH1 0x20 ADD DUP1 DUP4 GT PUSH2 0x423 JUMPI DUP3 SWAP1 SUB PUSH1 0x1F AND DUP3 ADD SWAP2 JUMPDEST POP POP POP POP POP SWAP1 DUP1 PUSH1 0x1 ADD SLOAD SWAP1 POP DUP3 JUMP JUMPDEST CALLER PUSH20 0xFFFFFFFFFFFFFFFFFFFFFFFFFFFFFFFFFFFFFFFF AND PUSH1 0x0 DUP1 SLOAD SWAP1 PUSH2 0x100 EXP SWAP1 DIV PUSH20 0xFFFFFFFFFFFFFFFFFFFFFFFFFFFFFFFFFFFFFFFF AND PUSH20 0xFFFFFFFFFFFFFFFFFFFFFFFFFFFFFFFFFFFFFFFF AND EQ PUSH2 0x4A8 JUMPI PUSH1 0x0 DUP1 REVERT JUMPDEST PUSH1 0x4 PUSH1 0x40 MLOAD DUP1 PUSH1 0x40 ADD PUSH1 0x40 MSTORE DUP1 DUP4 DUP2 MSTORE PUSH1 0x20 ADD PUSH1 0x0 DUP2 MSTORE POP SWAP1 DUP1 PUSH1 0x1 DUP2 SLOAD ADD DUP1 DUP3 SSTORE DUP1 SWAP2 POP POP PUSH1 0x1 SWAP1 SUB SWAP1 PUSH1 0x0 MSTORE PUSH1 0x20 PUSH1 0x0 KECCAK256 SWAP1 PUSH1 0x2 MUL ADD PUSH1 0x0 SWAP1 SWAP2 SWAP1 SWAP2 SWAP1 SWAP2 POP PUSH1 0x0 DUP3 ADD MLOAD DUP2 PUSH1 0x0 ADD SWAP1 DUP2 PUSH2 0x4FE SWAP2 SWAP1 PUSH2 0x1029 JUMP JUMPDEST POP PUSH1 0x20 DUP3 ADD MLOAD DUP2 PUSH1 0x1 ADD SSTORE POP POP POP JUMP JUMPDEST PUSH1 0x1 DUP1 SLOAD PUSH2 0x51B SWAP1 PUSH2 0xE4C JUMP JUMPDEST DUP1 PUSH1 0x1F ADD PUSH1 0x20 DUP1 SWAP2 DIV MUL PUSH1 0x20 ADD PUSH1 0x40 MLOAD SWAP1 DUP2 ADD PUSH1 0x40 MSTORE DUP1 SWAP3 SWAP2 SWAP1 DUP2 DUP2 MSTORE PUSH1 0x20 ADD DUP3 DUP1 SLOAD PUSH2 0x547 SWAP1 PUSH2 0xE4C JUMP JUMPDEST DUP1 ISZERO PUSH2 0x594 JUMPI DUP1 PUSH1 0x1F LT PUSH2 0x569 JUMPI PUSH2 0x100 DUP1 DUP4 SLOAD DIV MUL DUP4 MSTORE SWAP2 PUSH1 0x20 ADD SWAP2 PUSH2 0x594 JUMP JUMPDEST DUP3 ADD SWAP2 SWAP1 PUSH1 0x0 MSTORE PUSH1 0x20 PUSH1 0x0 KECCAK256 SWAP1 JUMPDEST DUP2 SLOAD DUP2 MSTORE SWAP1 PUSH1 0x1 ADD SWAP1 PUSH1 0x20 ADD DUP1 DUP4 GT PUSH2 0x577 JUMPI DUP3 SWAP1 SUB PUSH1 0x1F AND DUP3 ADD SWAP2 JUMPDEST POP POP POP POP POP DUP2 JUMP JUMPDEST PUSH1 0x0 DUP1 SLOAD SWAP1 PUSH2 0x100 EXP SWAP1 DIV PUSH20 0xFFFFFFFFFFFFFFFFFFFFFFFFFFFFFFFFFFFFFFFF AND DUP2 JUMP JUMPDEST PUSH2 0x5C8 PUSH2 0x888 JUMP JUMPDEST PUSH1 0x4 DUP3 DUP2 SLOAD DUP2 LT PUSH2 0x5DC JUMPI PUSH2 0x5DB PUSH2 0xD77 JUMP JUMPDEST JUMPDEST SWAP1 PUSH1 0x0 MSTORE PUSH1 0x20 PUSH1 0x0 KECCAK256 SWAP1 PUSH1 0x2 MUL ADD PUSH1 0x40 MLOAD DUP1 PUSH1 0x40 ADD PUSH1 0x40 MSTORE SWAP1 DUP2 PUSH1 0x0 DUP3 ADD DUP1 SLOAD PUSH2 0x605 SWAP1 PUSH2 0xE4C JUMP JUMPDEST DUP1 PUSH1 0x1F ADD PUSH1 0x20 DUP1 SWAP2 DIV MUL PUSH1 0x20 ADD PUSH1 0x40 MLOAD SWAP1 DUP2 ADD PUSH1 0x40 MSTORE DUP1 SWAP3 SWAP2 SWAP1 DUP2 DUP2 MSTORE PUSH1 0x20 ADD DUP3 DUP1 SLOAD PUSH2 0x631 SWAP1 PUSH2 0xE4C JUMP JUMPDEST DUP1 ISZERO PUSH2 0x67E JUMPI DUP1 PUSH1 0x1F LT PUSH2 0x653 JUMPI PUSH2 0x100 DUP1 DUP4 SLOAD DIV MUL DUP4 MSTORE SWAP2 PUSH1 0x20 ADD SWAP2 PUSH2 0x67E JUMP JUMPDEST DUP3 ADD SWAP2 SWAP1 PUSH1 0x0 MSTORE PUSH1 0x20 PUSH1 0x0 KECCAK256 SWAP1 JUMPDEST DUP2 SLOAD DUP2 MSTORE SWAP1 PUSH1 0x1 ADD SWAP1 PUSH1 0x20 ADD DUP1 DUP4 GT PUSH2 0x661 JUMPI DUP3 SWAP1 SUB PUSH1 0x1F AND DUP3 ADD SWAP2 JUMPDEST POP POP POP POP POP DUP2 MSTORE PUSH1 0x20 ADD PUSH1 0x1 DUP3 ADD SLOAD DUP2 MSTORE POP POP SWAP1 POP SWAP2 SWAP1 POP JUMP JUMPDEST PUSH1 0x3 PUSH1 0x20 MSTORE DUP1 PUSH1 0x0 MSTORE PUSH1 0x40 PUSH1 0x0 KECCAK256 PUSH1 0x0 SWAP2 POP SWAP1 POP DUP1 PUSH1 0x0 ADD DUP1 SLOAD PUSH2 0x6BB SWAP1 PUSH2 0xE4C JUMP JUMPDEST DUP1 PUSH1 0x1F ADD PUSH1 0x20 DUP1 SWAP2 DIV MUL PUSH1 0x20 ADD PUSH1 0x40 MLOAD SWAP1 DUP2 ADD PUSH1 0x40 MSTORE DUP1 SWAP3 SWAP2 SWAP1 DUP2 DUP2 MSTORE PUSH1 0x20 ADD DUP3 DUP1 SLOAD PUSH2 0x6E7 SWAP1 PUSH2 0xE4C JUMP JUMPDEST DUP1 ISZERO PUSH2 0x734 JUMPI DUP1 PUSH1 0x1F LT PUSH2 0x709 JUMPI PUSH2 0x100 DUP1 DUP4 SLOAD DIV MUL DUP4 MSTORE SWAP2 PUSH1 0x20 ADD SWAP2 PUSH2 0x734 JUMP JUMPDEST DUP3 ADD SWAP2 SWAP1 PUSH1 0x0 MSTORE PUSH1 0x20 PUSH1 0x0 KECCAK256 SWAP1 JUMPDEST DUP2 SLOAD DUP2 MSTORE SWAP1 PUSH1 0x1 ADD SWAP1 PUSH1 0x20 ADD DUP1 DUP4 GT PUSH2 0x717 JUMPI DUP3 SWAP1 SUB PUSH1 0x1F AND DUP3 ADD SWAP2 JUMPDEST POP POP POP POP POP SWAP1 DUP1 PUSH1 0x1 ADD SLOAD SWAP1 DUP1 PUSH1 0x2 ADD PUSH1 0x0 SWAP1 SLOAD SWAP1 PUSH2 0x100 EXP SWAP1 DIV PUSH1 0xFF AND SWAP1 DUP1 PUSH1 0x2 ADD PUSH1 0x1 SWAP1 SLOAD SWAP1 PUSH2 0x100 EXP SWAP1 DIV PUSH1 0xFF AND SWAP1 POP DUP5 JUMP JUMPDEST PUSH1 0x0 PUSH1 0x4 DUP1 SLOAD SWAP1 POP SWAP1 POP SWAP1 JUMP JUMPDEST DUP1 PUSH1 0x1 SWAP1 DUP2 PUSH2 0x786 SWAP2 SWAP1 PUSH2 0x1029 JUMP JUMPDEST POP CALLER PUSH1 0x0 DUP1 PUSH2 0x100 EXP DUP2 SLOAD DUP2 PUSH20 0xFFFFFFFFFFFFFFFFFFFFFFFFFFFFFFFFFFFFFFFF MUL NOT AND SWAP1 DUP4 PUSH20 0xFFFFFFFFFFFFFFFFFFFFFFFFFFFFFFFFFFFFFFFF AND MUL OR SWAP1 SSTORE POP PUSH1 0x0 PUSH1 0x2 DUP2 SWAP1 SSTORE POP POP JUMP JUMPDEST CALLER PUSH20 0xFFFFFFFFFFFFFFFFFFFFFFFFFFFFFFFFFFFFFFFF AND PUSH1 0x0 DUP1 SLOAD SWAP1 PUSH2 0x100 EXP SWAP1 DIV PUSH20 0xFFFFFFFFFFFFFFFFFFFFFFFFFFFFFFFFFFFFFFFF AND PUSH20 0xFFFFFFFFFFFFFFFFFFFFFFFFFFFFFFFFFFFFFFFF AND EQ PUSH2 0x82A JUMPI PUSH1 0x0 DUP1 REVERT JUMPDEST PUSH1 0x1 PUSH1 0x3 PUSH1 0x0 DUP4 PUSH20 0xFFFFFFFFFFFFFFFFFFFFFFFFFFFFFFFFFFFFFFFF AND PUSH20 0xFFFFFFFFFFFFFFFFFFFFFFFFFFFFFFFFFFFFFFFF AND DUP2 MSTORE PUSH1 0x20 ADD SWAP1 DUP2 MSTORE PUSH1 0x20 ADD PUSH1 0x0 KECCAK256 PUSH1 0x2 ADD PUSH1 0x0 PUSH2 0x100 EXP DUP2 SLOAD DUP2 PUSH1 0xFF MUL NOT AND SWAP1 DUP4 ISZERO ISZERO MUL OR SWAP1 SSTORE POP POP JUMP JUMPDEST PUSH1 0x40 MLOAD DUP1 PUSH1 0x40 ADD PUSH1 0x40 MSTORE DUP1 PUSH1 0x60 DUP2 MSTORE PUSH1 0x20 ADD PUSH1 0x0 DUP2 MSTORE POP SWAP1 JUMP JUMPDEST PUSH1 0x0 PUSH1 0x40 MLOAD SWAP1 POP SWAP1 JUMP JUMPDEST PUSH1 0x0 DUP1 REVERT JUMPDEST PUSH1 0x0 DUP1 REVERT JUMPDEST PUSH1 0x0 DUP2 SWAP1 POP SWAP2 SWAP1 POP JUMP JUMPDEST PUSH2 0x8C9 DUP2 PUSH2 0x8B6 JUMP JUMPDEST DUP2 EQ PUSH2 0x8D4 JUMPI PUSH1 0x0 DUP1 REVERT JUMPDEST POP JUMP JUMPDEST PUSH1 0x0 DUP2 CALLDATALOAD SWAP1 POP PUSH2 0x8E6 DUP2 PUSH2 0x8C0 JUMP JUMPDEST SWAP3 SWAP2 POP POP JUMP JUMPDEST PUSH1 0x0 PUSH1 0x20 DUP3 DUP5 SUB SLT ISZERO PUSH2 0x902 JUMPI PUSH2 0x901 PUSH2 0x8AC JUMP JUMPDEST JUMPDEST PUSH1 0x0 PUSH2 0x910 DUP5 DUP3 DUP6 ADD PUSH2 0x8D7 JUMP JUMPDEST SWAP2 POP POP SWAP3 SWAP2 POP POP JUMP JUMPDEST PUSH2 0x922 DUP2 PUSH2 0x8B6 JUMP JUMPDEST DUP3 MSTORE POP POP JUMP JUMPDEST PUSH1 0x0 PUSH1 0x20 DUP3 ADD SWAP1 POP PUSH2 0x93D PUSH1 0x0 DUP4 ADD DUP5 PUSH2 0x919 JUMP JUMPDEST SWAP3 SWAP2 POP POP JUMP JUMPDEST PUSH1 0x0 DUP2 MLOAD SWAP1 POP SWAP2 SWAP1 POP JUMP JUMPDEST PUSH1 0x0 DUP3 DUP3 MSTORE PUSH1 0x20 DUP3 ADD SWAP1 POP SWAP3 SWAP2 POP POP JUMP JUMPDEST PUSH1 0x0 JUMPDEST DUP4 DUP2 LT ISZERO PUSH2 0x97D JUMPI DUP1 DUP3 ADD MLOAD DUP2 DUP5 ADD MSTORE PUSH1 0x20 DUP2 ADD SWAP1 POP PUSH2 0x962 JUMP JUMPDEST PUSH1 0x0 DUP5 DUP5 ADD MSTORE POP POP POP POP JUMP JUMPDEST PUSH1 0x0 PUSH1 0x1F NOT PUSH1 0x1F DUP4 ADD AND SWAP1 POP SWAP2 SWAP1 POP JUMP JUMPDEST PUSH1 0x0 PUSH2 0x9A5 DUP3 PUSH2 0x943 JUMP JUMPDEST PUSH2 0x9AF DUP2 DUP6 PUSH2 0x94E JUMP JUMPDEST SWAP4 POP PUSH2 0x9BF DUP2 DUP6 PUSH1 0x20 DUP7 ADD PUSH2 0x95F JUMP JUMPDEST PUSH2 0x9C8 DUP2 PUSH2 0x989 JUMP JUMPDEST DUP5 ADD SWAP2 POP POP SWAP3 SWAP2 POP POP JUMP JUMPDEST PUSH1 0x0 PUSH1 0x40 DUP3 ADD SWAP1 POP DUP2 DUP2 SUB PUSH1 0x0 DUP4 ADD MSTORE PUSH2 0x9ED DUP2 DUP6 PUSH2 0x99A JUMP JUMPDEST SWAP1 POP PUSH2 0x9FC PUSH1 0x20 DUP4 ADD DUP5 PUSH2 0x919 JUMP JUMPDEST SWAP4 SWAP3 POP POP POP JUMP JUMPDEST PUSH1 0x0 DUP1 REVERT JUMPDEST PUSH1 0x0 DUP1 REVERT JUMPDEST PUSH32 0x4E487B7100000000000000000000000000000000000000000000000000000000 PUSH1 0x0 MSTORE PUSH1 0x41 PUSH1 0x4 MSTORE PUSH1 0x24 PUSH1 0x0 REVERT JUMPDEST PUSH2 0xA45 DUP3 PUSH2 0x989 JUMP JUMPDEST DUP2 ADD DUP2 DUP2 LT PUSH8 0xFFFFFFFFFFFFFFFF DUP3 GT OR ISZERO PUSH2 0xA64 JUMPI PUSH2 0xA63 PUSH2 0xA0D JUMP JUMPDEST JUMPDEST DUP1 PUSH1 0x40 MSTORE POP POP POP JUMP JUMPDEST PUSH1 0x0 PUSH2 0xA77 PUSH2 0x8A2 JUMP JUMPDEST SWAP1 POP PUSH2 0xA83 DUP3 DUP3 PUSH2 0xA3C JUMP JUMPDEST SWAP2 SWAP1 POP JUMP JUMPDEST PUSH1 0x0 PUSH8 0xFFFFFFFFFFFFFFFF DUP3 GT ISZERO PUSH2 0xAA3 JUMPI PUSH2 0xAA2 PUSH2 0xA0D JUMP JUMPDEST JUMPDEST PUSH2 0xAAC DUP3 PUSH2 0x989 JUMP JUMPDEST SWAP1 POP PUSH1 0x20 DUP2 ADD SWAP1 POP SWAP2 SWAP1 POP JUMP JUMPDEST DUP3 DUP2 DUP4 CALLDATACOPY PUSH1 0x0 DUP4 DUP4 ADD MSTORE POP POP POP JUMP JUMPDEST PUSH1 0x0 PUSH2 0xADB PUSH2 0xAD6 DUP5 PUSH2 0xA88 JUMP JUMPDEST PUSH2 0xA6D JUMP JUMPDEST SWAP1 POP DUP3 DUP2 MSTORE PUSH1 0x20 DUP2 ADD DUP5 DUP5 DUP5 ADD GT ISZERO PUSH2 0xAF7 JUMPI PUSH2 0xAF6 PUSH2 0xA08 JUMP JUMPDEST JUMPDEST PUSH2 0xB02 DUP5 DUP3 DUP6 PUSH2 0xAB9 JUMP JUMPDEST POP SWAP4 SWAP3 POP POP POP JUMP JUMPDEST PUSH1 0x0 DUP3 PUSH1 0x1F DUP4 ADD SLT PUSH2 0xB1F JUMPI PUSH2 0xB1E PUSH2 0xA03 JUMP JUMPDEST JUMPDEST DUP2 CALLDATALOAD PUSH2 0xB2F DUP5 DUP3 PUSH1 0x20 DUP7 ADD PUSH2 0xAC8 JUMP JUMPDEST SWAP2 POP POP SWAP3 SWAP2 POP POP JUMP JUMPDEST PUSH1 0x0 PUSH1 0x20 DUP3 DUP5 SUB SLT ISZERO PUSH2 0xB4E JUMPI PUSH2 0xB4D PUSH2 0x8AC JUMP JUMPDEST JUMPDEST PUSH1 0x0 DUP3 ADD CALLDATALOAD PUSH8 0xFFFFFFFFFFFFFFFF DUP2 GT ISZERO PUSH2 0xB6C JUMPI PUSH2 0xB6B PUSH2 0x8B1 JUMP JUMPDEST JUMPDEST PUSH2 0xB78 DUP5 DUP3 DUP6 ADD PUSH2 0xB0A JUMP JUMPDEST SWAP2 POP POP SWAP3 SWAP2 POP POP JUMP JUMPDEST PUSH1 0x0 PUSH1 0x20 DUP3 ADD SWAP1 POP DUP2 DUP2 SUB PUSH1 0x0 DUP4 ADD MSTORE PUSH2 0xB9B DUP2 DUP5 PUSH2 0x99A JUMP JUMPDEST SWAP1 POP SWAP3 SWAP2 POP POP JUMP JUMPDEST PUSH1 0x0 PUSH20 0xFFFFFFFFFFFFFFFFFFFFFFFFFFFFFFFFFFFFFFFF DUP3 AND SWAP1 POP SWAP2 SWAP1 POP JUMP JUMPDEST PUSH1 0x0 PUSH2 0xBCE DUP3 PUSH2 0xBA3 JUMP JUMPDEST SWAP1 POP SWAP2 SWAP1 POP JUMP JUMPDEST PUSH2 0xBDE DUP2 PUSH2 0xBC3 JUMP JUMPDEST DUP3 MSTORE POP POP JUMP JUMPDEST PUSH1 0x0 PUSH1 0x20 DUP3 ADD SWAP1 POP PUSH2 0xBF9 PUSH1 0x0 DUP4 ADD DUP5 PUSH2 0xBD5 JUMP JUMPDEST SWAP3 SWAP2 POP POP JUMP JUMPDEST PUSH1 0x0 DUP3 DUP3 MSTORE PUSH1 0x20 DUP3 ADD SWAP1 POP SWAP3 SWAP2 POP POP JUMP JUMPDEST PUSH1 0x0 PUSH2 0xC1B DUP3 PUSH2 0x943 JUMP JUMPDEST PUSH2 0xC25 DUP2 DUP6 PUSH2 0xBFF JUMP JUMPDEST SWAP4 POP PUSH2 0xC35 DUP2 DUP6 PUSH1 0x20 DUP7 ADD PUSH2 0x95F JUMP JUMPDEST PUSH2 0xC3E DUP2 PUSH2 0x989 JUMP JUMPDEST DUP5 ADD SWAP2 POP POP SWAP3 SWAP2 POP POP JUMP JUMPDEST PUSH2 0xC52 DUP2 PUSH2 0x8B6 JUMP JUMPDEST DUP3 MSTORE POP POP JUMP JUMPDEST PUSH1 0x0 PUSH1 0x40 DUP4 ADD PUSH1 0x0 DUP4 ADD MLOAD DUP5 DUP3 SUB PUSH1 0x0 DUP7 ADD MSTORE PUSH2 0xC75 DUP3 DUP3 PUSH2 0xC10 JUMP JUMPDEST SWAP2 POP POP PUSH1 0x20 DUP4 ADD MLOAD PUSH2 0xC8A PUSH1 0x20 DUP7 ADD DUP3 PUSH2 0xC49 JUMP JUMPDEST POP DUP1 SWAP2 POP POP SWAP3 SWAP2 POP POP JUMP JUMPDEST PUSH1 0x0 PUSH1 0x20 DUP3 ADD SWAP1 POP DUP2 DUP2 SUB PUSH1 0x0 DUP4 ADD MSTORE PUSH2 0xCAF DUP2 DUP5 PUSH2 0xC58 JUMP JUMPDEST SWAP1 POP SWAP3 SWAP2 POP POP JUMP JUMPDEST PUSH2 0xCC0 DUP2 PUSH2 0xBC3 JUMP JUMPDEST DUP2 EQ PUSH2 0xCCB JUMPI PUSH1 0x0 DUP1 REVERT JUMPDEST POP JUMP JUMPDEST PUSH1 0x0 DUP2 CALLDATALOAD SWAP1 POP PUSH2 0xCDD DUP2 PUSH2 0xCB7 JUMP JUMPDEST SWAP3 SWAP2 POP POP JUMP JUMPDEST PUSH1 0x0 PUSH1 0x20 DUP3 DUP5 SUB SLT ISZERO PUSH2 0xCF9 JUMPI PUSH2 0xCF8 PUSH2 0x8AC JUMP JUMPDEST JUMPDEST PUSH1 0x0 PUSH2 0xD07 DUP5 DUP3 DUP6 ADD PUSH2 0xCCE JUMP JUMPDEST SWAP2 POP POP SWAP3 SWAP2 POP POP JUMP JUMPDEST PUSH1 0x0 DUP2 ISZERO ISZERO SWAP1 POP SWAP2 SWAP1 POP JUMP JUMPDEST PUSH2 0xD25 DUP2 PUSH2 0xD10 JUMP JUMPDEST DUP3 MSTORE POP POP JUMP JUMPDEST PUSH1 0x0 PUSH1 0x80 DUP3 ADD SWAP1 POP DUP2 DUP2 SUB PUSH1 0x0 DUP4 ADD MSTORE PUSH2 0xD45 DUP2 DUP8 PUSH2 0x99A JUMP JUMPDEST SWAP1 POP PUSH2 0xD54 PUSH1 0x20 DUP4 ADD DUP7 PUSH2 0x919 JUMP JUMPDEST PUSH2 0xD61 PUSH1 0x40 DUP4 ADD DUP6 PUSH2 0xD1C JUMP JUMPDEST PUSH2 0xD6E PUSH1 0x60 DUP4 ADD DUP5 PUSH2 0xD1C JUMP JUMPDEST SWAP6 SWAP5 POP POP POP POP POP JUMP JUMPDEST PUSH32 0x4E487B7100000000000000000000000000000000000000000000000000000000 PUSH1 0x0 MSTORE PUSH1 0x32 PUSH1 0x4 MSTORE PUSH1 0x24 PUSH1 0x0 REVERT JUMPDEST PUSH32 0x4E487B7100000000000000000000000000000000000000000000000000000000 PUSH1 0x0 MSTORE PUSH1 0x11 PUSH1 0x4 MSTORE PUSH1 0x24 PUSH1 0x0 REVERT JUMPDEST PUSH1 0x0 PUSH2 0xDE0 DUP3 PUSH2 0x8B6 JUMP JUMPDEST SWAP2 POP PUSH32 0xFFFFFFFFFFFFFFFFFFFFFFFFFFFFFFFFFFFFFFFFFFFFFFFFFFFFFFFFFFFFFFFF DUP3 SUB PUSH2 0xE12 JUMPI PUSH2 0xE11 PUSH2 0xDA6 JUMP JUMPDEST JUMPDEST PUSH1 0x1 DUP3 ADD SWAP1 POP SWAP2 SWAP1 POP JUMP JUMPDEST PUSH32 0x4E487B7100000000000000000000000000000000000000000000000000000000 PUSH1 0x0 MSTORE PUSH1 0x22 PUSH1 0x4 MSTORE PUSH1 0x24 PUSH1 0x0 REVERT JUMPDEST PUSH1 0x0 PUSH1 0x2 DUP3 DIV SWAP1 POP PUSH1 0x1 DUP3 AND DUP1 PUSH2 0xE64 JUMPI PUSH1 0x7F DUP3 AND SWAP2 POP JUMPDEST PUSH1 0x20 DUP3 LT DUP2 SUB PUSH2 0xE77 JUMPI PUSH2 0xE76 PUSH2 0xE1D JUMP JUMPDEST JUMPDEST POP SWAP2 SWAP1 POP JUMP JUMPDEST PUSH1 0x0 DUP2 SWAP1 POP DUP2 PUSH1 0x0 MSTORE PUSH1 0x20 PUSH1 0x0 KECCAK256 SWAP1 POP SWAP2 SWAP1 POP JUMP JUMPDEST PUSH1 0x0 PUSH1 0x20 PUSH1 0x1F DUP4 ADD DIV SWAP1 POP SWAP2 SWAP1 POP JUMP JUMPDEST PUSH1 0x0 DUP3 DUP3 SHL SWAP1 POP SWAP3 SWAP2 POP POP JUMP JUMPDEST PUSH1 0x0 PUSH1 0x8 DUP4 MUL PUSH2 0xEDF PUSH32 0xFFFFFFFFFFFFFFFFFFFFFFFFFFFFFFFFFFFFFFFFFFFFFFFFFFFFFFFFFFFFFFFF DUP3 PUSH2 0xEA2 JUMP JUMPDEST PUSH2 0xEE9 DUP7 DUP4 PUSH2 0xEA2 JUMP JUMPDEST SWAP6 POP DUP1 NOT DUP5 AND SWAP4 POP DUP1 DUP7 AND DUP5 OR SWAP3 POP POP POP SWAP4 SWAP3 POP POP POP JUMP JUMPDEST PUSH1 0x0 DUP2 SWAP1 POP SWAP2 SWAP1 POP JUMP JUMPDEST PUSH1 0x0 PUSH2 0xF26 PUSH2 0xF21 PUSH2 0xF1C DUP5 PUSH2 0x8B6 JUMP JUMPDEST PUSH2 0xF01 JUMP JUMPDEST PUSH2 0x8B6 JUMP JUMPDEST SWAP1 POP SWAP2 SWAP1 POP JUMP JUMPDEST PUSH1 0x0 DUP2 SWAP1 POP SWAP2 SWAP1 POP JUMP JUMPDEST PUSH2 0xF40 DUP4 PUSH2 0xF0B JUMP JUMPDEST PUSH2 0xF54 PUSH2 0xF4C DUP3 PUSH2 0xF2D JUMP JUMPDEST DUP5 DUP5 SLOAD PUSH2 0xEAF JUMP JUMPDEST DUP3 SSTORE POP POP POP POP JUMP JUMPDEST PUSH1 0x0 SWAP1 JUMP JUMPDEST PUSH2 0xF69 PUSH2 0xF5C JUMP JUMPDEST PUSH2 0xF74 DUP2 DUP5 DUP5 PUSH2 0xF37 JUMP JUMPDEST POP POP POP JUMP JUMPDEST JUMPDEST DUP2 DUP2 LT ISZERO PUSH2 0xF98 JUMPI PUSH2 0xF8D PUSH1 0x0 DUP3 PUSH2 0xF61 JUMP JUMPDEST PUSH1 0x1 DUP2 ADD SWAP1 POP PUSH2 0xF7A JUMP JUMPDEST POP POP JUMP JUMPDEST PUSH1 0x1F DUP3 GT ISZERO PUSH2 0xFDD JUMPI PUSH2 0xFAE DUP2 PUSH2 0xE7D JUMP JUMPDEST PUSH2 0xFB7 DUP5 PUSH2 0xE92 JUMP JUMPDEST DUP2 ADD PUSH1 0x20 DUP6 LT ISZERO PUSH2 0xFC6 JUMPI DUP2 SWAP1 POP JUMPDEST PUSH2 0xFDA PUSH2 0xFD2 DUP6 PUSH2 0xE92 JUMP JUMPDEST DUP4 ADD DUP3 PUSH2 0xF79 JUMP JUMPDEST POP POP JUMPDEST POP POP POP JUMP JUMPDEST PUSH1 0x0 DUP3 DUP3 SHR SWAP1 POP SWAP3 SWAP2 POP POP JUMP JUMPDEST PUSH1 0x0 PUSH2 0x1000 PUSH1 0x0 NOT DUP5 PUSH1 0x8 MUL PUSH2 0xFE2 JUMP JUMPDEST NOT DUP1 DUP4 AND SWAP2 POP POP SWAP3 SWAP2 POP POP JUMP JUMPDEST PUSH1 0x0 PUSH2 0x1019 DUP4 DUP4 PUSH2 0xFEF JUMP JUMPDEST SWAP2 POP DUP3 PUSH1 0x2 MUL DUP3 OR SWAP1 POP SWAP3 SWAP2 POP POP JUMP JUMPDEST PUSH2 0x1032 DUP3 PUSH2 0x943 JUMP JUMPDEST PUSH8 0xFFFFFFFFFFFFFFFF DUP2 GT ISZERO PUSH2 0x104B JUMPI PUSH2 0x104A PUSH2 0xA0D JUMP JUMPDEST JUMPDEST PUSH2 0x1055 DUP3 SLOAD PUSH2 0xE4C JUMP JUMPDEST PUSH2 0x1060 DUP3 DUP3 DUP6 PUSH2 0xF9C JUMP JUMPDEST PUSH1 0x0 PUSH1 0x20 SWAP1 POP PUSH1 0x1F DUP4 GT PUSH1 0x1 DUP2 EQ PUSH2 0x1093 JUMPI PUSH1 0x0 DUP5 ISZERO PUSH2 0x1081 JUMPI DUP3 DUP8 ADD MLOAD SWAP1 POP JUMPDEST PUSH2 0x108B DUP6 DUP3 PUSH2 0x100D JUMP JUMPDEST DUP7 SSTORE POP PUSH2 0x10F3 JUMP JUMPDEST PUSH1 0x1F NOT DUP5 AND PUSH2 0x10A1 DUP7 PUSH2 0xE7D JUMP JUMPDEST PUSH1 0x0 JUMPDEST DUP3 DUP2 LT ISZERO PUSH2 0x10C9 JUMPI DUP5 DUP10 ADD MLOAD DUP3 SSTORE PUSH1 0x1 DUP3 ADD SWAP2 POP PUSH1 0x20 DUP6 ADD SWAP5 POP PUSH1 0x20 DUP2 ADD SWAP1 POP PUSH2 0x10A4 JUMP JUMPDEST DUP7 DUP4 LT ISZERO PUSH2 0x10E6 JUMPI DUP5 DUP10 ADD MLOAD PUSH2 0x10E2 PUSH1 0x1F DUP10 AND DUP3 PUSH2 0xFEF JUMP JUMPDEST DUP4 SSTORE POP JUMPDEST PUSH1 0x1 PUSH1 0x2 DUP9 MUL ADD DUP9 SSTORE POP POP POP JUMPDEST POP POP POP POP POP POP JUMP INVALID LOG2 PUSH5 0x6970667358 0x22 SLT KECCAK256 EXTCODEHASH 0xC7 PUSH15 0xC9AB392A3A9364E1034C961CC228C0 POP 0xC8 0x24 PUSH15 0x1D8FB221FB3586C0944F64736F6C63 NUMBER STOP ADDMOD SLT STOP CALLER "
				},
				"gasEstimates": {
					"creation": {
						"codeDepositCost": "880200",
						"executionCost": "916",
						"totalCost": "881116"
					},
					"external": {
						"addCandidate(string)": "infinite",
						"authorizeVoter(address)": "27095",
						"candidates(uint256)": "infinite",
						"electionName()": "infinite",
						"getCandidatesCount()": "2511",
						"owner()": "2511",
						"showCandidateInfo(uint256)": "infinite",
						"startElection(string)": "infinite",
						"totalVotes()": "2452",
						"vote(uint256)": "infinite",
						"voters(address)": "infinite"
					}
				},
				"methodIdentifiers": {
					"addCandidate(string)": "462e91ec",
					"authorizeVoter(address)": "fd47b368",
					"candidates(uint256)": "3477ee2e",
					"electionName()": "85e8e7a7",
					"getCandidatesCount()": "bb9aa28f",
					"owner()": "8da5cb5b",
					"showCandidateInfo(uint256)": "8e04ac30",
					"startElection(string)": "f544bed8",
					"totalVotes()": "0d15fd77",
					"vote(uint256)": "0121b93f",
					"voters(address)": "a3ec138d"
				}
			},
			"storageLayout": {
				"storage": [
					{
						"astId": 3,
						"contract": "contracts/Election.sol:Election",
						"label": "owner",
						"offset": 0,
						"slot": "0",
						"type": "t_address"
					},
					{
						"astId": 5,
						"contract": "contracts/Election.sol:Election",
						"label": "electionName",
						"offset": 0,
						"slot": "1",
						"type": "t_string_storage"
					},
					{
						"astId": 7,
						"contract": "contracts/Election.sol:Election",
						"label": "totalVotes",
						"offset": 0,
						"slot": "2",
						"type": "t_uint256"
					},
					{
						"astId": 12,
						"contract": "contracts/Election.sol:Election",
						"label": "voters",
						"offset": 0,
						"slot": "3",
						"type": "t_mapping(t_address,t_struct(Voter)30_storage)"
					},
					{
						"astId": 16,
						"contract": "contracts/Election.sol:Election",
						"label": "candidates",
						"offset": 0,
						"slot": "4",
						"type": "t_array(t_struct(Candidate)21_storage)dyn_storage"
					}
				],
				"types": {
					"t_address": {
						"encoding": "inplace",
						"label": "address",
						"numberOfBytes": "20"
					},
					"t_array(t_struct(Candidate)21_storage)dyn_storage": {
						"base": "t_struct(Candidate)21_storage",
						"encoding": "dynamic_array",
						"label": "struct Election.Candidate[]",
						"numberOfBytes": "32"
					},
					"t_bool": {
						"encoding": "inplace",
						"label": "bool",
						"numberOfBytes": "1"
					},
					"t_mapping(t_address,t_struct(Voter)30_storage)": {
						"encoding": "mapping",
						"key": "t_address",
						"label": "mapping(address => struct Election.Voter)",
						"numberOfBytes": "32",
						"value": "t_struct(Voter)30_storage"
					},
					"t_string_storage": {
						"encoding": "bytes",
						"label": "string",
						"numberOfBytes": "32"
					},
					"t_struct(Candidate)21_storage": {
						"encoding": "inplace",
						"label": "struct Election.Candidate",
						"members": [
							{
								"astId": 18,
								"contract": "contracts/Election.sol:Election",
								"label": "candidateName",
								"offset": 0,
								"slot": "0",
								"type": "t_string_storage"
							},
							{
								"astId": 20,
								"contract": "contracts/Election.sol:Election",
								"label": "candidateTotalVote",
								"offset": 0,
								"slot": "1",
								"type": "t_uint256"
							}
						],
						"numberOfBytes": "64"
					},
					"t_struct(Voter)30_storage": {
						"encoding": "inplace",
						"label": "struct Election.Voter",
						"members": [
							{
								"astId": 23,
								"contract": "contracts/Election.sol:Election",
								"label": "voterName",
								"offset": 0,
								"slot": "0",
								"type": "t_string_storage"
							},
							{
								"astId": 25,
								"contract": "contracts/Election.sol:Election",
								"label": "whomVoterVoted",
								"offset": 0,
								"slot": "1",
								"type": "t_uint256"
							},
							{
								"astId": 27,
								"contract": "contracts/Election.sol:Election",
								"label": "isVoterAuthorized",
								"offset": 0,
								"slot": "2",
								"type": "t_bool"
							},
							{
								"astId": 29,
								"contract": "contracts/Election.sol:Election",
								"label": "isVoterVoted",
								"offset": 1,
								"slot": "2",
								"type": "t_bool"
							}
						],
						"numberOfBytes": "96"
					},
					"t_uint256": {
						"encoding": "inplace",
						"label": "uint256",
						"numberOfBytes": "32"
					}
				}
			},
			"userdoc": {
				"kind": "user",
				"methods": {},
				"version": 1
			}
		}
	}
}